:020000040000FA
:100000000C945D000C9485000C9485000C94850084
:100010000C9485000C9485000C9470100C94850051
:100020000C9485000C9485000C9485000C9485003C
:100030000C9485000C9485000C9485000C9485002C
:100040000C94D2050C9485000C9442060C941C066A
:100050000C9485000C9485000C9485000C9485000C
:100060000C9485000C94850000000008000201003B
:100070000003040700000000000000000000000072
:10008000250028002B0000000000240027002A0083
:10009000040404040404040402020202020203032E
:1000A0000303030301020408102040800102040836
:1000B0001020010204081020731011241FBECFEF7E
:1000C000D8E0DEBFCDBF11E0A0E0B1E0E2E6F6E2AD
:1000D00002C005900D92AA3CB107D9F723E0AAEC23
:1000E000B1E001C01D92A531B207E1F710E0CDE506
:1000F000D0E004C02197FE010E941913CC35D1072E
:10010000C9F70E94BD100C942F130C94000090E0CE
:10011000FC01EC55FF4F249180579F4FFC018491C7
:10012000882399F090E0880F991FFC01EA57FF4F50
:10013000A591B491FC01E458FF4F859194918FB73C
:10014000F894EC91E22BEC938FBF089580E48093B8
:100150007C0080917A00806480937A0080917A009C
:1001600086FDFCCF8091780090917900089590E011
:10017000FC01E859FF4F2491FC01EC55FF4F3491ED
:10018000FC01E057FF4FE491EE23C9F0222339F040
:10019000233001F1A8F4213019F1223029F1F0E0E7
:1001A000EE0FFF1FE458FF4FA591B4918FB7F8945D
:1001B000EC91611126C030953E233C938FBF08958A
:1001C0002730A9F02830C9F0243049F78091800009
:1001D0008F7D03C0809180008F7780938000DFCF78
:1001E00084B58F7784BDDBCF84B58F7DFBCF8091C5
:1001F000B0008F778093B000D2CF8091B0008F7D18
:10020000F9CF3E2BDACFAF92BF92CF92DF92EF922F
:10021000FF920F931F93CF93DF936C017B018B01B0
:10022000040F151FEB015E01AE18BF08C017D10700
:1002300059F06991D601ED91FC910190F081E02D8A
:10024000C6010995892B79F7C501DF91CF911F91DF
:100250000F91FF90EF90DF90CF90BF90AF900895F7
:10026000FC01538D448D252F30E0842F90E0821BBC
:10027000930B541710F0CF96089501970895FC0141
:10028000918D828D981761F0A28DAE0FBF2FB11D99
:100290005D968C91928D9F5F9F73928F90E00895F1
:1002A0008FEF9FEF0895FC01918D828D981731F0AB
:1002B000828DE80FF11D858D90E008958FEF9FEFFF
:1002C0000895FC01918D228D892F90E0805C9F4FD5
:1002D000821B91098F73992708958CE592E00E9403
:1002E000610121E0892B09F420E0822F08950E940A
:1002F0006D0181110C940000089580E090E0892B3D
:1003000011F00C9477010895FC01A48DA80FB92F6A
:10031000B11DA35ABF4F2C91848D90E001968F732D
:100320009927848FA689B7892C93A089B1898C914C
:10033000837080648C93938D848D981306C002889B
:10034000F389E02D80818F7D80830895EF92FF9265
:100350000F931F93CF93DF93EC0181E0888F9B8DE8
:100360008C8D98131AC0E889F989808185FF15C0A2
:100370009FB7F894EE89FF896083E889F9898081C5
:100380008370806480839FBF81E090E0DF91CF9194
:100390001F910F91FF90EF900895F62E0B8D10E0B6
:1003A0000F5F1F4F0F731127E02E8C8D8E110CC025
:1003B0000FB607FCFACFE889F989808185FFF5CF70
:1003C000CE010E948401F1CFEB8DEC0FFD2FF11DCA
:1003D000E35AFF4FF0829FB7F8940B8FEA89FB89AD
:1003E00080818062CFCFCF93DF93EC01888D88230B
:1003F000B9F0AA89BB89E889F9898C9185FD03C088
:10040000808186FD0DC00FB607FCF7CF8C9185FF6C
:10041000F2CF808185FFEDCFCE010E948401E9CF2C
:10042000DF91CF910895259A2D9A0895089590E02F
:1004300080E00895CF93DF93EC0160E08E810E940D
:10044000B70061E08E810E94B70060E08E810E945B
:10045000B7008BE891E00197F1F7DF91CF91089514
:10046000CF92DF92EF92FF920F931F93CF93DF9380
:100470006C017C0187E0E80EF11CD0E0C0E0062FA3
:1004800010E0B8010C2E02C0759567950A94E2F74A
:100490006170F70181917F010E94B7002196C430FD
:1004A000D10579F7C601DF91CF911F910F91FF9090
:1004B000EF90DF90CF900C941A02CF92DF92EF92E0
:1004C000FF920F931F93CF93DF93EC01F62E642FCF
:1004D0008C810E94B7008D818F3F19F060E00E94EF
:1004E000B7000F2D10E08F8584FF25C06E0187E0D7
:1004F000C80ED11CF12CE12CB8010E2C02C0759550
:1005000067950A94E2F76170F60181916F010E948C
:10051000B700FFEFEF1AFF0A88E0E816F10461F771
:10052000CE01DF91CF911F910F91FF90EF90DF905F
:10053000CF900C941A02B80184E0759567958A955E
:10054000E1F7CE010E9430026F2DCE01DF91CF91F5
:100550001F910F91FF90EF90DF90CF900C9430029D
:1005600040E0682F89EF92E00C945D02CF93DF9317
:10057000823029F490910803986090930803809347
:100580000C0310920D0380E480930E0380E18093AE
:100590000F0380E5809310038091FD020E94870085
:1005A0008091FE028F3F11F00E9487008091FF0230
:1005B0000E948700C9EFD2E09E01295F32408091FE
:1005C000080384FD0AC084E090E0219628173907CB
:1005D0003CF48E810E948700EFCF88E090E0F5CF59
:1005E0008BE39DE00197F1F760E08091FD020E94AE
:1005F000B70060E08091FF020E94B7008091FE0288
:100600008F3F19F060E00E94B7008091080384FDDD
:1006100039C063E089EF92E00E943002CBE4D6E477
:10062000CE010197F1F763E089EF92E00E9430027A
:100630002197F1F763E089EF92E00E94300283E5B1
:1006400092E00197F1F762E089EF92E00E943002B8
:100650008091080380620E94B00284E080930903C5
:100660008CE00E94B00281E00E94B0028BE39FE127
:100670000197F1F782E080930A0386E0DF91CF9142
:100680000C94B00280620E94B0028BE496E4019761
:10069000F1F78091080380620E94B00283E592E046
:1006A0000197F1F78091080380620E94B002D0CFD9
:1006B00041E00E945D0281E090E00895FB0101901D
:1006C0000020E9F73197AF01461B570BDC01ED9194
:1006D000FC910280F381E02D0994CF93DF93BC015C
:1006E0008CE592E00E945E03EC0165E271E08CE52E
:1006F00092E00E945E038C0F9D1FDF91CF910895C1
:1007000019E00E94A600883E9340B4F0CFEFDFEFDF
:100710000E94A600883E93400CF040C00E943B0718
:1007200060E086E090E00E947D080E94A60B8111A7
:10073000EFCF0E94E60AECCF0E943B0760E084E026
:1007400090E00E947D080E94A60B811102C00E94C9
:10075000E60A0E94A600883E9340C4F60E94A600C6
:10076000C1E0D0E0843691059CF2C2E0D0E08C324A
:1007700021E092076CF2C3E0D0E0843F21E09207D1
:100780003CF2C4E0D0E08C3B22E092070CF2C5E0E2
:10079000D0E0843893400CF4BBCFB8CFCF3FDC0718
:1007A00009F4AFCFC130D10521F0C430D10509F033
:1007B00070C081E090E02091CE013091CF01232BD9
:1007C00011F090E080E09093CF018093CE018EE510
:1007D00091E00E946D03C091CC01D091CD01809138
:1007E000590290915A02C817D90709F48ACF209765
:1007F00009F487CF0FB6F8940F928A859B858550B0
:10080000924009F043C08C899D8922E0873192078C
:10081000E9F1892BD9F58FA58130C1F17E0182E004
:10082000E80EF11CC7010E948E07EE8980915602E6
:100830008E1710F4E09356021E9FF0011124EE5C17
:10084000FD4F0180F281E02DFD83EC838481958151
:100850009F838E83A481B5811396FC92EE921297AA
:10086000F582E4829E89919FF0011124EE5CFD4F98
:10087000FB87EA8780818F5F8083E0915902F09146
:100880005A028689891710F40E94E60A0F900FBE5B
:1008900038CF259709F09BCF8091CE019091CF0161
:1008A000892B29F488E291E00E946D0390CF83E4C4
:1008B00091E0FACF0BE31FE185E0E82E82E0F82E0D
:1008C00099E0D92E89E691E00E946D0381E00E94B3
:1008D000B002C8010197F1F7E1E080910C038111AA
:1008E000E0E0E195F0E0E750FD4F848980680E94E8
:1008F000B00264E771E089EF92E00E945E03E0914C
:100900000C03E23008F06AC0E150F0E0E750FD4F20
:10091000848980680E94B0028091CE019091CF01BD
:10092000892B09F05DC062E871E089EF92E00E94D6
:100930005E036CE871E089EF92E00E945E030FB6FF
:10094000F8940F92C0915902D0915A025E0122E0B0
:10095000A20EB11CC5010E948E078C899D89892B2E
:1009600021F0CE010C960E948E07E0910602F091D4
:100970000702FD83EC83848195819F838E83A4810C
:10098000B5811396BC92AE921297B582A482FB8673
:10099000EA86809105028F5F809305028FA58130E2
:1009A00009F41FA60F900FBE80915802882339F0DA
:1009B0000FB6F8940F920E9474060F900FBE8091AC
:1009C000590290915A02C817D90709F07BCF80913C
:1009D0005802882371F00E94E60A74CFE1E095CFB7
:1009E00065E971E089EF92E00E945E036FE971E0D2
:1009F000A2CF80915B0290910502981305C01092DE
:100A00005A02109259025ECF8091D301882321F0BF
:100A100081E08093D20156CF1092D201A091590269
:100A2000B0915A02E0915902F0915A022D913C91F5
:100A30008789908D82179307A8F080915902909131
:100A40005A028091590290915A020E9413028FEF2C
:100A500097EA21E6815090402040E1F700C0000075
:100A60001D9AF5CF80915602482F50E0D49EF00198
:100A7000D59EF00D1124EE5CFD4F9081992351F12C
:100A8000A181B28112966D917C91728361838D9D5B
:100A9000900111242B5C3D4F6217730721F42581CF
:100AA000368132832183D49EF001D59EF00D11242E
:100AB000EE5CFD4F0180F281E02D2681378130937D
:100AC0005A022093590280935602809159029091C4
:100AD0005A02F8CE8150C8CF0F931F93CF93DF9364
:100AE000ECE5F2E0A089B18982E08C93A485B5851C
:100AF0001C92A685B78580E18C93108EA489B58958
:100B000086E08C93A289B3898C9180618C93A289B1
:100B1000B3898C9188608C93A289B3898C91806809
:100B20008C930288F389E02D80818F7D808383E020
:100B30000E94870084E00E94870085E00E94870071
:100B400060E085E00E94B70082E00E94B602C9EF33
:100B5000D2E08889982F9260988B8A600E94B002B8
:100B60008889982F9160988B89600E94B0020CEC64
:100B700011E022E040E850E068EA71E08AE594E0A4
:100B80000E94480F10E000E022E040E850E061EBF6
:100B900071E080E893E00E94480FDF91CF911F91B0
:100BA0000F9108951F920F920FB60F9211242F9359
:100BB0003F938F939F93AF93BF938091FD0190914B
:100BC000FE01A091FF01B09100023091FC0123E0F1
:100BD000230F2D3758F50196A11DB11D2093FC015F
:100BE0008093FD019093FE01A093FF01B09300025A
:100BF0008091F8019091F901A091FA01B091FB0167
:100C00000196A11DB11D8093F8019093F901A09365
:100C1000FA01B093FB01BF91AF919F918F913F91EA
:100C20002F910F900FBE0F901F90189526E8230F5D
:100C30000296A11DB11DD2CF1F920F920FB60F9237
:100C400011242F933F934F935F936F937F938F93D1
:100C50009F93AF93BF93EF93FF938CE592E00E9435
:100C60008401FF91EF91BF91AF919F918F917F91FF
:100C70006F915F914F913F912F910F900FBE0F9009
:100C80001F9018951F920F920FB60F9211242F9359
:100C90008F939F93EF93FF93E0916C02F0916D021D
:100CA0008081E0917202F091730282FD1BC09081FD
:100CB000809175028F5F8F7320917602821741F0C9
:100CC000E0917502F0E0E45AFD4F958F8093750234
:100CD000FF91EF919F918F912F910F900FBE0F90E9
:100CE0001F9018958081F4CFE0910302F0910402E7
:100CF0008081811107C08FEF9FEF9093F701809360
:100D0000F6010895E0910302F09104020580F68156
:100D1000E02D80819181F1CFCF93DF93DC01159697
:100D2000ED91FC910680F781E02DA489B589868537
:100D3000978520893189EC013D832C83C089D18935
:100D40009B838A83CF010C9611962D913C9112972B
:100D50002817390721F41296DC93CE931197158A40
:100D6000148A2C9121502C932091D301211157C02A
:100D7000A285B3858481958126813781EC013D83ED
:100D80002C83C681D7819B838A83CF0102961196DB
:100D90002D913C9112972817390721F41296DC9374
:100DA000CE931197138612862C9121502C93C689CD
:100DB000209156022C1710F4C093560229E02C9F64
:100DC000E0011124CE5CDD4F0980DA81C02DD5838E
:100DD000C4834C815D8157834683AC81BD8113966A
:100DE0009C938E9312979D838C83A689A29FD0019A
:100DF0001124AE5CBD4FB387A2878C918F5F8C931B
:100E0000A0915902B0915A02968956968C918917F1
:100E100030F581E08093D201DF91CF910895A091C8
:100E20001802B0911902B787A68714962D913C91AC
:100E30001597318B208B1496CD91DC9115979B8360
:100E40008A8315969C938E93149787E192E0958BF5
:100E5000848B809117028F5F80931702D1CF80E03F
:100E6000DBCF0FB6F8940F928091F4019091F501C9
:100E70000F900FBE08958091D3018F5F8093D301AF
:100E800008950FB6F8940F92FC01928D0F900FBE4B
:100E900081E0911180E00895EF92FF920F931F93EC
:100EA000CF93DF93EC010FB6F8940F921E8D7C0167
:100EB00081E1E80EF11C01E01116D4F08FEF8E8F66
:100EC0000F900FBE0FB6F8940F921D8D7E0188E033
:100ED000E80EF11C01E01116B4F08FEF8D8F0F902A
:100EE0000FBEDF91CF911F910F91FF90EF9008956A
:100EF0008989882319F3C7010E948C068111009308
:100F0000D2011150D9CF8885882339F3C7010E94B7
:100F10008C0681110093D2011150DDCFCF93DF9366
:100F2000FC01A085B1858281938124813581EC010A
:100F30003D832C83C481D5819B838A8311968D91B7
:100F40009C9112978E179F0721F41296DC93CE93F3
:100F50001197118610868C9181508C93DF91CF91DF
:100F600008950F931F93CF93DF938C01FB01808132
:100F70009181D80113968F3F9807F1F4E801AF8172
:100F8000B88512968D919C91139793838283EC017F
:100F9000FD83EC83B583A4831396FC93EE931297A1
:100FA00011870087F80180818F5F8083DF91CF9167
:100FB0001F910F910895D90112962D913C9113978D
:100FC000E9014881598184179507A8F7DACFFC0118
:100FD00073836283918780874617570790F0421B7F
:100FE000530B8485958548175907C8F4BF016E5F78
:100FF0007F4F8091DA019091DB010E94B10780E080
:1010000008954217530718F46217730740F4BF019D
:101010006E5F7F4F8091DC019091DD01EECF81E02A
:101020000895EF92FF920F931F93CF93DF93EC01FC
:101030008B017A016C857D85600F711F9801A70176
:10104000CE010E94E707811107C0DF91CF911F9168
:101050000F91FF90EF9008958C859D85080F191FC3
:10106000E889F989CE010995E5CFEF92FF920F93B8
:101070001F93CF93DF938C017B01E091DC01F09112
:10108000DD010580F681E02DC681D781CE01029673
:101090000E948E078A8982FF0FC0A701B801CE0186
:1010A0000E941108E889F989CE01DF91CF911F9143
:1010B0000F91FF90EF9009948E7F8A8BF3CFE09190
:1010C000DC01F091DD01808181110DC08091DA0198
:1010D0009091DB019093DD018093DC01F093DB01C3
:1010E000E093DA0108950580F681E02D6FEF7FEF40
:1010F000808191810E943508E2CFBF92CF92DF922A
:10110000EF92FF920F931F93CF93DF93EC01B62ED4
:10111000C090F401D090F5010091030210910402F7
:10112000E0900102F09002028091590290915A02DF
:1011300002960E948E07CF3FDC0709F042C0BB2019
:1011400009F43FC0E0910602F0910702A091590214
:10115000B0915A021596FC93EE931497A091590200
:10116000B0915A028481958117969C938E9316971D
:101170008091590290915A02A481B58102961396EA
:101180009C938E9312978091590290915A020296E5
:1011900095838483E0915902F0915A0285E092E0B0
:1011A00093878287809105028F5F80930502DF918C
:1011B000CF911F910F91FF90EF90DF90CF90BF9054
:1011C0000895CC0DDD1DE0915902F0915A02D383B0
:1011D000C2836091590270915A026E5F7F4FCC15A5
:1011E000DD0560F4C701DF91CF911F910F91FF9052
:1011F000EF90DF90CF90BF900C94B107C8010E9490
:10120000B1078091F6019091F701C817D90778F6D8
:10121000D093F701C093F601CACFFC0103969283E5
:1012200081832FEF3FEF34832383968385839087D9
:101230008783108208950F920FB6F8940F921F9231
:1012400011242F923F924F925F926F927F928F92D2
:101250009F92AF92BF92CF92DF92EF92FF920F9345
:101260001F932F933F934F935F936F937F938F932E
:101270009F93AF93BF93CF93DF93EF93FF93A0918F
:101280005902B0915A020DB60D920EB60D9213BED0
:101290008091D3018111F9C08091F4019091F50101
:1012A00001969093F5018093F401009781F52091C8
:1012B00003023091040240910102509102025093C6
:1012C0000402409303023093020220930102209112
:1012D000D7012F5F2093D701E0910302F091040220
:1012E0002081211107C02FEF3FEF3093F7012093AA
:1012F000F6010DC0E0910302F09104020580F68131
:10130000E02D208131813093F7012093F601209167
:10131000F6013091F7018217930710F420E0A1C085
:1013200020E039E0D32EE0910302F09104023081F5
:10133000311107C08FEF9FEF9093F7018093F60173
:1013400090C0E0910302F09104020580F681E02D47
:101350000680F781E02D428153818417950728F498
:101360005093F7014093F6017CC0A285B385448178
:10137000558166817781EA017D836C8366817781FF
:10138000EB015B834A83AF014E5F5F4F11960D9176
:101390001C9112970417150721F412967C936E93F3
:1013A0001197138612863C9131503C93A489B589DC
:1013B0001097F9F06685778500891189EB011D8307
:1013C0000C8300891189E8017B836A831196ED9073
:1013D000FC901297BF01645F7F4FE616F70621F479
:1013E00012961C930E931197158A148A3C913150D2
:1013F0003C93A689309156023A1710F4A0935602F6
:10140000DA9ED0011124AE5CBD4F11960D90BC91B7
:10141000A02DB583A48314966D917C911597778345
:10142000668314966D917C911597EB015B834A83DB
:1014300015965C934E93149746894D9DD0011124C7
:10144000AE5CBD4FB387A2873C913F5F3C93E09178
:101450005902F0915A023689341708F064CF21E01E
:1014600062CFE0915902F0915A02E689D9E0ED9FEE
:10147000F0011124EE5CFD4F8081823008F021E004
:101480008091D20181110EC00AC08091D00190914B
:10149000D10101969093D1018093D0016CC0222399
:1014A00009F469C08091D301882321F081E0809301
:1014B000D20161C01092D201A0915902B0915A029A
:1014C000E0915902F0915A022D913C918789908DBB
:1014D00082179307A8F08091590290915A02809147
:1014E000590290915A02259A2D9A2FEF87EA91E698
:1014F000215080409040E1F700C000001D9AF5CFD8
:101500002091560289E001C02150422F50E0849F73
:10151000F001859FF00D1124EE5CFD4F9081992321
:1015200099F3A181B28112966D917C91728361834E
:10153000289FC00111248B5C9D4F6817790721F407
:10154000858196819283818389E0849FF001859FC4
:10155000F00D1124EE5CFD4F0180F281E02D8681BB
:10156000978190935A02809359022093560280915A
:10157000590290915A02A0915902B0915A02CD910C
:10158000CDBFDD91DEBFFF91EF91DF91CF91BF9194
:10159000AF919F918F917F916F915F914F913F910B
:1015A0002F911F910F91FF90EF90DF90CF90BF9000
:1015B000AF909F908F907F906F905F904F903F90F3
:1015C0002F901F900F900FBE0F9008950F920FB69F
:1015D000F8940F921F9211242F923F924F925F9294
:1015E0006F927F928F929F92AF92BF92CF92DF9233
:1015F000EF92FF920F931F932F933F934F935F931D
:101600006F937F938F939F93AF93BF93CF93DF930A
:10161000EF93FF93A0915902B0915A020DB60D922B
:101620000EB60D928091D301882321F081E0809342
:10163000D20161C01092D201A0915902B0915A0218
:10164000E0915902F0915A022D913C918789908D39
:1016500082179307A8F08091590290915A028091C5
:10166000590290915A02259A2D9A2FEF87EA91E616
:10167000215080409040E1F700C000001D9AF5CF56
:101680002091560289E001C02150422F50E0849FF2
:10169000F001859FF00D1124EE5CFD4F90819923A0
:1016A00099F3A181B28112966D917C9172836183CD
:1016B000289FC00111248B5C9D4F6817790721F486
:1016C000858196819283818389E0849FF001859F43
:1016D000F00D1124EE5CFD4F0180F281E02D86813A
:1016E000978190935A0280935902209356028091D9
:1016F000590290915A02A0915902B0915A02CD918B
:10170000CDBFDD91DEBFFF91EF91DF91CF91BF9112
:10171000AF919F918F917F916F915F914F913F9189
:101720002F911F910F91FF90EF90DF90CF90BF907E
:10173000AF909F908F907F906F905F904F903F9071
:101740002F901F900F900FBE0F9008958F929F9231
:10175000BF92CF92DF92EF92FF920F931F93CF939E
:10176000DF930FB6F8940F928091D301815080934C
:10177000D3018091D301882379F080E00F900FBED0
:10178000DF91CF911F910F91FF90EF90DF90CF905D
:10179000BF909F908F90089580915B02882369F39A
:1017A000E0901C02F0901D02F0E0E0E039E041E042
:1017B0008091170281115EC0EF2B11F00E94740618
:1017C000E090D001F090D101E114F10409F47DC161
:1017D00089E0D82ECC24C3940FEF1FEF8091D30162
:1017E000811161C1C091F401D091F5014E018FEFDB
:1017F000881A980A9092F5018092F401811491045C
:10180000B9F4809103029091040220910102309179
:101810000202309304022093030290930202809309
:1018200001028091D7018F5F8093D7010E947406D7
:101830008091F6019091F701B12C8816990608F075
:1018400026C1E0915902F0915A02E689DE9EF0012C
:101850001124EE5CFD4F8081823010F0BB24B394E4
:101860008091D201811103C0BB2009F425C1C0922F
:10187000D20122C1D7011696ED91FC91A489B589B8
:101880006685778580899189EB019D838C8380892A
:101890009189EC017B836A83BF01645F7F4F11965E
:1018A0000D911C9112970617170721F412969C931D
:1018B0008E931197158A148A8C9181508C93A285EE
:1018C000B3858481958166817781EC017D836C830A
:1018D00066817781EB019B838A83CF010296119603
:1018E0000D911C9112970817190721F412967C93F9
:1018F0006E931197138612862C9121502C93A689F2
:10190000209156022A1710F4A09356023A9FD00154
:101910001124AE5CBD4F11960D90BC91A02DB583E6
:10192000A48314966D917C911597778366831496A2
:101930006D917C911597EB019B838A8315969C93FF
:101940008E9314979689939FD0011124AE5CBD4F5E
:10195000B387A2878C918F5F8C93A0915902B0912D
:101960005A0256968C91891708F022CF4093D201E3
:101970001FCFE0910302F09104020580F681E02D73
:101980000680F781E02D828193818816990628F4DC
:101990009093F7018093F60154CFC285D38584815B
:1019A000958126813781DC0115963C932E931497FF
:1019B00026813781D90113969C938E931297CF017C
:1019C000029649815A814817590711F43A832983AD
:1019D00013861286288121502883A489B5891097FF
:1019E000F9F02685378540895189E9015D834C836B
:1019F00040895189EA013B832A8311966D917C913C
:101A000012979F01245F3F4F6217730721F41296CC
:101A10005C934E931197158A148A2C9121502C9324
:101A2000A689209156022A1710F4A0935602DA9E36
:101A3000D0011124AE5CBD4F11960D90BC91A02D2C
:101A4000B583A48314962D913C91159737832683F3
:101A500014962D913C911597E9019B838A831596E5
:101A60009C938E93149796899D9DD0011124AE5C12
:101A7000BD4FB387A2878C918F5F8C93E091590201
:101A8000F0915A028689891710F4BB24B394E0912F
:101A90000302F0910402808181116BCF1093F70152
:101AA0000093F601CECE8091D0019091D1010196A4
:101AB0009093D1018093D001D1E0ED1AF10809F0A3
:101AC0008DCE1092D1011092D0018091D201882345
:101AD00009F453CE8091590290915A020E94E60A6D
:101AE00081E04CCECF93DF93009751F0EC010E9440
:101AF0003B07CE010E949012DF91CF910C94A60B70
:101B0000DF91CF910895CF93DF9300D000D01F9243
:101B1000CDB7DEB785E0B82ECE0101967C01E0910D
:101B2000DC01F091DD011081D12CC12C112329F0B1
:101B30000580F681E02DC080D1800E943B070E9485
:101B400031074C018091D5019091D60188169906F4
:101B500008F089C00E945F089092D6018092D5015A
:101B60000E94A60BD701EB2D1D92EA95E9F7009193
:101B7000F2011091F3010FB6F8940F92D8015A9622
:101B8000DC905A97DD2009F42FC15C964C915C974C
:101B90004423F9F050E016968D919C911797840F8D
:101BA000951F17969C938E93169714962D913C91A2
:101BB00015978217930738F08D919C91119717967E
:101BC0009C938E931697F80166817781C7010E94D6
:101BD0001F13DA94D8015A96DC925A9718968C9172
:101BE000882339F0C80108960E948C0681110E9452
:101BF000E60A0F900FBEA980A7FCB9CF0C811D810A
:101C0000D8011A968D919C91892B21F0C8010296DA
:101C10000E948E070E9431076C018091D50190913E
:101C2000D601C816D90610F40E945F08D092D601DA
:101C3000C092D501EFEFEA0DE93008F098CF0E2EF3
:101C4000000CFF0BE65DF14FD80152968C91529734
:101C50000C941913AD0EAD0EF00ED80EEA0EAD0EAB
:101C6000AD0EF00ED80E9092D6018092D5011123C0
:101C700051F08C149D0470F00E94A60BB401C601B3
:101C80000E9435086FCFE091DA01F091DB0161E04D
:101C90008081811160E00091F2011091F3010FB693
:101CA000F8940F92D8015D968C915D978F3F11F457
:101CB0005D961C92F801868D8F3F09F4168E0F9069
:101CC0000FBED8015A968C915A9781113CC05296FA
:101CD000ED91FC91A0915902B0915A021F96FC938C
:101CE000EE931E97A0915902B0915A02848195817A
:101CF00051969C938E9350978091590290915A02DD
:101D0000A481B5810C9613969C938E931297809123
:101D1000590290915A020C9695838483E09159025E
:101D2000F0915A02C8014196958B848BF801818904
:101D30008F5F818BC60188199909662311F08FEF97
:101D40009FEF0E947D08C8010E944C070E94A60BCD
:101D5000811108CF0E94E60A05CF8160F801828BCD
:101D60008A809B8064857585680D791D9401A60124
:101D7000C8010E94E707882309F4F9CED8015296DA
:101D80008C91529782FF10C01C966D917C91680DCA
:101D9000791DA601C8010E941108D8015096ED9145
:101DA000FC91C8010995E3CE8E7FF801828BF5CFB7
:101DB000816052968C9352976A817B811D967C93A9
:101DC0006E931C976C0D7D1D9601A601C8010E94A3
:101DD000E707CDCE81FD04C0C8010E94720DC7CEB9
:101DE0008E7FF801828BC3CE0F900FBE98CE00E09D
:101DF00010E08091D40181110CC0809132028230B8
:101E000010F00E94E60A0115110599F30E9477016E
:101E1000F0CF0FB6F8940F92E0911302F0911402F4
:101E2000C681D781CE0102960E948E0780915B0207
:101E3000815080935B028091D40181508093D401C2
:101E40000F900FBE8F89988D0E94720DCE010E9457
:101E5000720DCFCFCF93DF93EC010E943B07CE01F1
:101E60000E94F411EC010E94A60B209769F40E94D5
:101E700013022FEF80E792E0215080409040E1F77D
:101E800000C000001D9AF5CFCE01DF91CF910895DB
:101E90007F928F929F92AF92BF92CF92DF92EF92FA
:101EA000FF920F931F93CF93DF93982EA92E762E38
:101EB000872E7A01B22ECA010E942A0F6C01892B4B
:101EC00009F4EDC080E390E00E942A0FEC01892B19
:101ED00009F4E2C080E3DE011D928A95E9F7D88E0D
:101EE000CF8AA70165EA70E0C6010E942813B1E01D
:101EF000EB1AF108EF89F88DEE0DFF1D672D782D97
:101F0000CE0149969B01205F3F4FDB014D91BD0102
:101F1000DC014D93CD01AB0141505109DA014C91E7
:101F2000442319F02617370781F718A6BE8AB9A6E9
:101F30001B861A861D8A1C8AD987C88784E090E090
:101F40008B1991099D878C87DB8BCA8B9082DF016F
:101F50001197AC9211971C92119780E88C9311976E
:101F60001C9257971C9211971C92B397F983E883A0
:101F70000115110519F0F801D183C0830FB6F8944B
:101F80000F9280915B028F5F80935B028091590278
:101F900090915A02892B09F091C0D0935A02C093B4
:101FA000590280915B02813081F582E392E00E94C8
:101FB0000D098BE392E00E940D0984E492E00E94F7
:101FC0000D098DE492E00E940D0989E292E00E94E1
:101FD0000D0980E292E00E940D0987E192E00E94E3
:101FE0000D098EE092E00E940D0985E092E00E94CA
:101FF0000D0989E292E0909304028093030280E24B
:1020000092E09093020280930102809157028F5FC9
:1020100080935702AE89809156028A1710F4A093DC
:10202000560229E02A9FD0011124AE5CBD4F1196C3
:102030000D90BC91A02DBD83AC8314968D919C9185
:1020400015979F838E831496ED91FC911597CE0181
:1020500002969383828315969C938E931497EE89B0
:10206000E29FF0011124EE5CFD4FFB87EA8780813F
:102070008F5F80830F900FBE80915802882351F0AC
:10208000E0915902F0915A0296898E89981710F4BE
:102090000E94E60A81E004C0C6010E94720D8FEF23
:1020A000DF91CF911F910F91FF90EF90DF90CF9034
:1020B000BF90AF909F908F907F900895809158022D
:1020C0008111A3CFE0915902F0915A0296898E892D
:1020D000891708F49ACFD0935A02C093590295CF2A
:1020E0000E941B091895ECE5F2E01382128288EE3B
:1020F00093E0A0E0B0E084839583A683B7838BE070
:1021000091E09183808385EC90E09587848784ECCF
:1021100090E09787868780EC90E0918B808B81ECB4
:1021200090E0938B828B82EC90E0958B848B86EC95
:1021300090E0978B868B118E128E138E148EE9EFA2
:10214000F2E0138212828DE191E09183808388E036
:1021500084838FEF858389E0868384E0878385E0AD
:10216000808786E0818787E08287138614861586BC
:102170001686178681E00C94B602CF93DF93CDB715
:10218000DEB760970FB6F894DEBF0FBECDBF789470
:1021900084B5826084BD84B5816084BD85B582606C
:1021A00085BD85B5816085BD80916E00816080931D
:1021B0006E00109281008091810082608093810086
:1021C0008091810081608093810080918000816096
:1021D000809380008091B10084608093B1008091F1
:1021E000B00081608093B00080917A008460809319
:1021F0007A0080917A00826080937A0080917A00E0
:10220000816080937A0080917A00806880937A0060
:102210001092C10020910501309106018FEF98E0E6
:10222000821B930B90930201809301010E946C0525
:10223000ADEBB1E0FE013196BF018D918193882312
:1022400021F081E0AD3CB807C1F708ED11E020E0D6
:1022500040EC50E087EF9EE00E94480F882309F48D
:10226000B7C0813009F0B4C00FB6F8940F928091D6
:10227000F2019091F301892B09F050C087EE91E0B3
:102280000E940D098EED91E00E940D0987EE91E00C
:102290009093DD018093DC018EED91E09093DB0162
:1022A0008093DA0181E590E00E942A0F8C0100976B
:1022B00089F14F96F801918380838AE0838F85E0CE
:1022C000848F0FB6F8940F9280819181238D448D75
:1022D000BC01249F600D711D112475836483128ECF
:1022E000938382832150330B429FB001439F700D33
:1022F0001124860F971F978386838FEF858F868F94
:10230000C80108960E940D09C80141960E940D0956
:102310000F900FBE1093F3010093F2010F900FBEC8
:102320008091F2019091F301892B09F451C000EFE3
:1023300011E023E04CE550E062EC71E083E89DE0C1
:102340000E94480F813009F043C0F8942FEF3FEF0F
:102350003093F7012093F601809358021092F50113
:102360001092F401A89588E190EC0FB6F894A89526
:10237000809360000FBE90936000A0915902B091CD
:102380005A02CD91CDBFDD91DEBFFF91EF91DF917C
:10239000CF91BF91AF919F918F917F916F915F91FD
:1023A0004F913F912F911F910F91FF90EF90DF90F0
:1023B000CF90BF90AF909F908F907F906F905F90E5
:1023C0004F903F902F901F900F900FBE0F90089549
:1023D000809100010E946C0500E010E001151105DC
:1023E000E9F30E947701FACF0F931F93CF93DF9306
:1023F0008230910510F482E090E0E0911303F091B7
:10240000140330E020E0B0E0A0E0309799F421150B
:10241000310509F44AC0281B390B24303105D8F5A1
:102420008A819B816115710589F1FB019383828308
:10243000FE0111C040815181028113814817590763
:10244000E0F04817590799F4109761F012960C9331
:10245000129713961C933296CF01DF91CF911F9163
:102460000F9108950093130310931403F4CF2115D3
:10247000310551F04217530738F0A901DB019A01E9
:10248000BD01DF01F801C1CFEF01F9CF9093140333
:1024900080931303CDCFFE01E20FF31F819391933D
:1024A0002250310939832883D7CF209111033091ED
:1024B0001203232B41F42091030130910401309346
:1024C0001203209311032091010130910201211583
:1024D000310541F42DB73EB74091050150910601F9
:1024E000241B350BE0911103F0911203E217F3075F
:1024F000A0F42E1B3F0B2817390778F0AC014E5F74
:102500005F4F2417350748F04E0F5F1F509312039B
:1025100040931103819391939FCFF0E0E0E09CCF33
:10252000CF93DF930097E9F0FC0132971382128278
:10253000A0911303B0911403ED0130E020E0109757
:10254000A1F420813181820F931F209111033091DA
:1025500012032817390709F061C0F0931203E093C2
:102560001103DF91CF910895EA01CE17DF07E8F557
:102570004A815B819E0141155105B1F7E901FB8359
:10258000EA8349915991C40FD51FEC17FD0761F4F7
:10259000808191810296840F951FE9019983888338
:1025A000828193819B838A83F0E0E0E012968D9193
:1025B0009C9113970097B9F52D913C911197CD01FE
:1025C0000296820F931F2091110330911203281756
:1025D000390739F6309751F510921403109213030E
:1025E000B0931203A0931103BCCFD383C283408165
:1025F0005181840F951FC817D90761F44E5F5F4F53
:1026000088819981480F591F518340838A819B811A
:10261000938382832115310509F0B0CFF093140321
:10262000E09313039ECFFD01DC01C0CF1382128221
:10263000D7CFEE0FFF1F0590F491E02D0994FB0119
:10264000DC0102C001900D9241505040D8F708952E
:10265000DC0101C06D9341505040E0F70895F894BB
:10266000FFCF0300001503800000000000A6010357
:10267000013001F30161013F0153010000000058E6
:10268000030301170216020D0A00436F6E74726F86
:102690006C6C696E67206D6F746F72207370656506
:1026A000642E2E2E00436F6E74726F6C6C696E67B1
:1026B000206D6F746F7220616E676C652E2E2E0018
:1026C000726573756D657461736B006C63645F75BF
:1026D00070646174650020434F4E54524F4C205437
:1026E000595045003E2053504545442020002020AD
:1026F000414E474C45200020205350454544202062
:10270000003E20414E474C4520004C43442054613C
:10271000736B00427574746F6E205461736B004963
:0C272000444C4500546D72205376630059
:107E0000112484B714BE81FFF0D085E080938100F7
:107E100082E08093C00088E18093C10086E0809377
:107E2000C20080E18093C4008EE0C9D0259A86E02C
:107E300020E33CEF91E0309385002093840096BBD3
:107E4000B09BFECF1D9AA8958150A9F7CC24DD24C4
:107E500088248394B5E0AB2EA1E19A2EF3E0BF2EE7
:107E6000A2D0813461F49FD0082FAFD0023811F036
:107E7000013811F484E001C083E08DD089C08234E0
:107E800011F484E103C0853419F485E0A6D080C0E4
:107E9000853579F488D0E82EFF2485D0082F10E0AE
:107EA000102F00270E291F29000F111F8ED06801E7
:107EB0006FC0863521F484E090D080E0DECF843638
:107EC00009F040C070D06FD0082F6DD080E0C81688
:107ED00080E7D80618F4F601B7BEE895C0E0D1E017
:107EE00062D089930C17E1F7F0E0CF16F0E7DF06D8
:107EF00018F0F601B7BEE89568D007B600FCFDCFD4
:107F0000A601A0E0B1E02C9130E011968C91119780
:107F100090E0982F8827822B932B1296FA010C0160
:107F200087BEE89511244E5F5F4FF1E0A038BF0790
:107F300051F7F601A7BEE89507B600FCFDCF97BE46
:107F4000E89526C08437B1F42ED02DD0F82E2BD052
:107F50003CD0F601EF2C8F010F5F1F4F84911BD097
:107F6000EA94F801C1F70894C11CD11CFA94CF0C13
:107F7000D11C0EC0853739F428D08EE10CD085E9AC
:107F80000AD08FE07ACF813511F488E018D01DD067
:107F900080E101D065CF982F8091C00085FFFCCF94
:107FA0009093C60008958091C00087FFFCCF809118
:107FB000C00084FD01C0A8958091C6000895E0E648
:107FC000F0E098E1908380830895EDDF803219F02E
:107FD00088E0F5DFFFCF84E1DECF1F93182FE3DFCA
:107FE0001150E9F7F2DF1F91089580E0E8DFEE27F6
:047FF000FF270994CA
:027FFE00040479
:00000001FF
