:020000040000FA
:100000000C9462000C948A000C948A000C948A0070
:100010000C9410070C948A000C948A000C946907C5
:100020000C948A000C948A000C948A000C948A0028
:100030000C948A000C94A7070C948A000C948A00F4
:100040000C946E060C948A000C94DE060C94B80690
:100050000C948A000C948A000C948A000C948A00F8
:100060000C948A000C948A000000000024002700F1
:100070002A0000000000250028002B0000000000DE
:1000800023002600290004040404040404040202DA
:100090000202020203030303030301020408102007
:1000A0004080010204081020010204081020000012
:1000B0000008000201000003040700000000000027
:1000C0000000BE0711241FBECFEFD8E0DEBFCDBFBA
:1000D00011E0A0E0B1E0E4E5F4E202C005900D9289
:1000E000AE3BB107D9F722E0AEEBB1E001C01D9203
:1000F000A13BB207E1F710E0C2E6D0E004C02197CF
:10010000FE010E942212C136D107C9F70E940808D9
:100110000C9428120C94000080E480937C00809161
:100120007A00806480937A0080917A0086FDFCCF0B
:100130008091780090917900089596B19093FA019A
:10014000ECE6F0E09081892B8083E8E6F0E08081A6
:10015000826080830895833081F028F4813099F0A3
:100160008230A9F008958730A9F08830C9F0843032
:10017000B1F4809180008F7D03C0809180008F77E3
:1001800080938000089584B58F7784BD089584B5E9
:100190008F7DFBCF8091B0008F778093B000089562
:1001A0008091B0008F7DF9CFCF93DF93282F30E07F
:1001B000F901E255FF4F8491F901E656FF4FD491C2
:1001C000F901EA57FF4FC491CC23A1F081110E949D
:1001D000AB00EC2FF0E0EE0FFF1FE458FF4FA591AE
:1001E000B491EC91ED2381E090E009F480E0DF919F
:1001F000CF91089580E090E0FACF1F93CF93DF93E3
:10020000282F30E0F901E255FF4F8491F901E656BD
:10021000FF4FD491F901EA57FF4FC491CC23A9F0C5
:10022000162F81110E94AB00EC2FF0E0EE0FFF1FA4
:10023000EE58FF4FA591B4918FB7F894EC9111113E
:1002400008C0D095DE23DC938FBFDF91CF911F9143
:100250000895DE2BF8CFCF93DF9390E0FC01E656B4
:10026000FF4F24918A579F4FFC0184918823D1F03E
:1002700090E0880F991FFC01E859FF4FA591B491B8
:10028000FC01EE58FF4FC591D491623071F49FB7D5
:10029000F8943C91822F809583238C93E8812E2BB8
:1002A00028839FBFDF91CF9108958FB7F894EC9189
:1002B0002E2B2C938FBFF6CF3FB7F8948091F5018A
:1002C0009091F601A091F701B091F80126B5A89B95
:1002D00005C02F3F19F00196A11DB11D3FBFBA2FD8
:1002E000A92F982F8827BC01CD01620F711D811D98
:1002F000911D42E0660F771F881F991F4A95D1F71D
:1003000008958F929F92AF92BF92CF92DF92EF9219
:10031000FF920E945C014B015C0184E6C82ED12C47
:10032000E12CF12C0E945C01681979098A099B096A
:10033000683E734081059105A8F321E0C21AD108F7
:10034000E108F10888EE880E83E0981EA11CB11C1C
:10035000C114D104E104F10429F7FF90EF90DF907C
:10036000CF90BF90AF909F908F9008950895AF92D7
:10037000BF92CF92DF92EF92FF920F931F93CF9392
:10038000DF936C017B018B01040F151FEB015E01F4
:10039000AE18BF08C017D10759F06991D601ED9189
:1003A000FC910190F081E02DC6010995892B79F728
:1003B000C501DF91CF911F910F91FF90EF90DF90DA
:1003C000CF90BF90AF900895FC01538D448D252FA1
:1003D00030E0842F90E0821B930B541710F0CF96DF
:1003E000089501970895FC01918D828D981761F011
:1003F000A28DAE0FBF2FB11D5D968C91928D9F5F28
:100400009F73928F90E008958FEF9FEF0895FC0106
:10041000918D828D981731F0828DE80FF11D858DB9
:1004200090E008958FEF9FEF0895FC01918D228D4C
:10043000892F90E0805C9F4F821B91098F739927D1
:1004400008958CEF91E00E94150221E0892B09F4B8
:1004500020E0822F089580E090E0892B29F00E940F
:10046000210281110C9400000895FC01A48DA80FB5
:10047000B92FB11DA35ABF4F2C91848D90E00196E6
:100480008F739927848FA689B7892C93A089B18906
:100490008C91837080648C93938D848D981306C0A7
:1004A0000288F389E02D80818F7D80830895EF920B
:1004B000FF920F931F93CF93DF93EC0181E0888F1E
:1004C0009B8D8C8D98131AC0E889F989808185FFEE
:1004D00015C09FB7F894EE89FF896083E889F98990
:1004E00080818370806480839FBF81E090E0DF9192
:1004F000CF911F910F91FF90EF900895F62E0B8DE5
:1005000010E00F5F1F4F0F731127E02E8C8D8E119F
:100510000CC00FB607FCFACFE889F989808185FF06
:10052000F5CFCE010E943502F1CFEB8DEC0FFD2F00
:10053000F11DE35AFF4FF0829FB7F8940B8FEA89C1
:10054000FB8980818062CFCFCF93DF93EC01888DD0
:100550008823B9F0AA89BB89E889F9898C9185FD3E
:1005600003C0808186FD0DC00FB607FCF7CF8C91CC
:1005700085FFF2CF808185FFEDCFCE010E9435024D
:10058000E9CFDF91CF910895089590E080E008953C
:10059000E1EBF0E08081887F80830895CF92DF9245
:1005A000EF92FF92C090CD01D090CE018091840057
:1005B00090918500F12CE12C7601DD24CC24C80E2D
:1005C000D91EE11CF11C8FE00E94D40021E00197AC
:1005D00009F020E020930001809100018823D1F0F0
:1005E0008091CF019091D00101966CED75E00E9451
:1005F000D8119093D0018093CF01C092C201D092C4
:10060000C301E092C401F092C501FF90EF90DF902A
:10061000CF9008958091CF019091D001892B31F036
:100620008091CF019091D0010197E3CF8BED95E0C0
:10063000E0CF0F931F938091CD019091CE01E4E81C
:10064000F0E020813181B0E0A0E0DC01992788272B
:10065000820F931FA11DB11D4091C6015091C7018A
:100660006091C8017091C9018C019D01041B150B9B
:10067000260B370BB901A8014093D5015093D60141
:100680006093D7017093D8018093C6019093C701FE
:10069000A093C801B093C9011092D2011092D10168
:1006A0001092D0011092CF011092CE011092CD0184
:1006B000118210821F910F910895CF92DF92EF92D5
:1006C000FF92C090CD01D090CE0180918400909196
:1006D0008500F12CE12C7601DD24CC24C80ED91E36
:1006E000E11CF11C80E10E94D40021E0892B09F07B
:1006F00020E020930001809100018823D1F08091B7
:10070000D1019091D20101966CED75E00E94D81153
:100710009093D2018093D101C092BE01D092BF01CB
:10072000E092C001F092C101FF90EF90DF90CF9076
:1007300008958091D1019091D201892B31F080915F
:10074000D1019091D2010197E3CF8BED95E0E0CFFD
:10075000CF93DF93EC0160E08E810E94FD0061E0A9
:100760008E810E94FD0060E08E810E94FD008BE87A
:1007700091E00197F1F7DF91CF910895CF92DF9249
:10078000EF92FF920F931F93CF93DF936C017C0145
:1007900087E0E80EF11CD0E0C0E0062F10E0B801C1
:1007A0000C2E02C0759567950A94E2F76170F70107
:1007B00081917F010E94FD002196C430D10579F717
:1007C000C601DF91CF911F910F91FF90EF90DF90C5
:1007D000CF900C94A803CF92DF92EF92FF920F93E9
:1007E0001F93CF93DF93EC01F62E642F8C810E9430
:1007F000FD008D818F3F19F060E00E94FD000F2DFC
:1008000010E08F8584FF25C06E0187E0C80ED11CE3
:10081000F12CE12CB8010E2C02C0759567950A9455
:10082000E2F76170F60181916F010E94FD00FFEF18
:10083000EF1AFF0A88E0E816F10461F7CE01DF91B4
:10084000CF911F910F91FF90EF90DF90CF900C947C
:10085000A803B80184E0759567958A95E1F7CE0104
:100860000E94BE036F2DCE01DF91CF911F910F919A
:10087000FF90EF90DF90CF900C94BE0340E0682F84
:1008800089E992E00C94EB0381E00E943E048BE343
:100890009FE10197F1F70895CF93DF93823029F418
:1008A0009091A80298609093A8028093AC02109255
:1008B000AD0280E48093AE0280E18093AF0280E5D8
:1008C0008093B00261E080919D020E942B01809193
:1008D0009E028F3F19F061E00E942B0161E0809140
:1008E0009F020E942B01C9E9D2E09E0129593240A2
:1008F0008091A80284FD0BC084E090E02196281727
:10090000390744F461E08E810E942B01EECF88E02C
:1009100090E0F4CF8BE39DE00197F1F760E08091E8
:100920009D020E94FD0060E080919F020E94FD00F8
:1009300080919E028F3F19F060E00E94FD0080913F
:10094000A80284FD34C063E089E992E00E94BE03FE
:10095000CBE4D6E4CE010197F1F763E089E992E0B8
:100960000E94BE032197F1F763E089E992E00E94BB
:10097000BE0383E592E00197F1F762E089E992E036
:100980000E94BE038091A80280620E943E0484E01F
:100990008093A9028CE00E943E040E94440482E0FD
:1009A0008093AA0286E0DF91CF910C943E0480628E
:1009B0000E943E048BE496E40197F1F78091A8022F
:1009C00080620E943E0483E592E00197F1F78091F6
:1009D000A80280620E943E04D5CF9091AC026917B4
:1009E00010F06FEF690FE62FF0E0E756FD4F9489A6
:1009F000890F80680C943E0441E00E94EB0381E083
:100A000090E00895FB0101900020E9F73197AF01D4
:100A1000461B570BDC01ED91FC910280F381E02D28
:100A200009948F929F92AF92BF92EF92FF920F9391
:100A30001F93CF93DF93CDB7DEB7A1970FB6F8948E
:100A4000DEBF0FBECDBF7C01FA01CB0119A222305F
:100A500008F42AE08E010F5D1F4F822E912CB12CDD
:100A6000A12CBF01A50194010E940012F901CA0145
:100A70006A300CF5605DD8016E938D01232B242B19
:100A8000252B79F790E080E0109721F0BD01C70198
:100A90000E940205A1960FB6F894DEBF0FBECDBF2F
:100AA000DF91CF911F910F91FF90EF90BF90AF908A
:100AB0009F908F900895695CDECFCF92DF92EF9286
:100AC000FF926C01990FEE08FF08F7FE18C041E095
:100AD0006DE289E992E00E94EB0344275527BA01B1
:100AE0004C195D096E097F092AE089E992E00E94AC
:100AF00011050196FF90EF90DF90CF9008952AE0C6
:100B0000B701A60189E992E0FF90EF90DF90CF90C6
:100B10000C9411054F925F926F927F928F929F92E9
:100B2000AF92BF92CF92DF92EF92FF920F931F93FB
:100B3000CF936B017C01742EAC019B010E94D311F9
:100B400061E371E0811126C046015701E894B7F8CE
:100B50002FEF3FEF4FE75FE7C501B4010E94D311CC
:100B600081110CC02FEF3FEF4FE75FE7C501B401E4
:100B70000E94AA0F65E371E0181664F02FEF3FEFB3
:100B80004FE75FE4C701B6010E9461111816ACF48B
:100B900069E371E08CEF91E0CF911F910F91FF908D
:100BA000EF90DF90CF90BF90AF909F908F907F900D
:100BB0006F905F904F900C9402052FEF3FEF4FE73F
:100BC0005FECC701B6010E94AA0F87FDE1CF20E0CC
:100BD00030E0A901C701B6010E94AA0F10E000E0B1
:100BE00087FF0AC06DE28CEF91E00E9457028C01F2
:100BF000F7FAF094F7F8F094C0E060E070E080E07D
:100C00009FE37C1641F020E030E040E251E40E9496
:100C1000AF0FCF5FF6CFA70196010E943E0F2B01C9
:100C20003C010E9428104B015C012AE0BC01A40198
:100C30008CEF91E00E9411057C01E00EF11ECC23A7
:100C4000D1F1C501B4010E9457109B01AC01C30151
:100C5000B2010E943D0F4B015C016EE28CEF91E00E
:100C60000E945702E80EF91EC15028F120E030E042
:100C700040E251E4C501B4010E9466112B013C0120
:100C80000E9428104B01B12CA12C2AE0B501A4012F
:100C90008CEF91E00E941105E80EF91EC501B40128
:100CA0000E9457109B01AC01C301B2010E943D0F8D
:100CB0004B015C01D9CFC701CF911F910F91FF90DC
:100CC000EF90DF90CF90BF90AF909F908F907F90EC
:100CD0006F905F904F9008950C9402051F920F92B1
:100CE0000FB60F9211242F933F938F939F93AF933F
:100CF000BF938091F1019091F201A091F301B09125
:100D0000F4013091F00123E0230F2D3758F50196BF
:100D1000A11DB11D2093F0018093F1019093F20188
:100D2000A093F301B093F4018091F5019091F60145
:100D3000A091F701B091F8010196A11DB11D80931A
:100D4000F5019093F601A093F701B093F801BF91DC
:100D5000AF919F918F913F912F910F900FBE0F9068
:100D60001F90189526E8230F0296A11DB11DD2CF22
:100D70001F920F920FB60F9211242F933F934F9310
:100D80005F936F937F938F939F93AF93BF93EF93F3
:100D9000FF938CEF91E00E943502FF91EF91BF919C
:100DA000AF919F918F917F916F915F914F913F9103
:100DB0002F910F900FBE0F901F9018951F920F92BA
:100DC0000FB60F9211242F938F939F93EF93FF935E
:100DD000E0910C02F0910D028081E0911202F091FD
:100DE000130282FD1BC09081809115028F5F8F736B
:100DF00020911602821741F0E0911502F0E0E450D4
:100E0000FE4F958F80931502FF91EF919F918F91E7
:100E10002F910F900FBE0F901F9018958081F4CFE7
:100E20001F920F920FB60F9211242F933F934F935F
:100E30005F936F937F938F939F93AF93BF93CF9362
:100E4000EF93FF9386B1C091FA019091CB01C92332
:100E5000982F9095C9238093FA01C0FF05C0E091B7
:100E60000101F09102010995C1FF05C0E0910B015C
:100E7000F0910C010995C2FF05C0E0910901F091C4
:100E80000A010995C3FF05C0E0910701F09108012F
:100E90000995C4FF05C0E0910301F0910401099593
:100EA000C5FF05C0E0910501F09106010995FF918C
:100EB000EF91CF91BF91AF919F918F917F916F9162
:100EC0005F914F913F912F910F900FBE0F901F9008
:100ED00018951F920F920FB60F9211242F933F93E4
:100EE0008F939F938091DA019091DB01892B31F1EF
:100EF0008091D3019091D40101969093D401809375
:100F0000D3012091D3013091D4018091DA019091E5
:100F1000DB012817390790F0809170008D7F809356
:100F200070008091B100887F8093B1001092D4014D
:100F30001092D3011092DB011092DA019F918F91F0
:100F40003F912F910F900FBE0F901F9018951F92F9
:100F50000F920FB60F9211248F939F938091CD0122
:100F60009091CE0101969093CE018093CD019F91F7
:100F70008F910F900FBE0F901F901895ECEFF1E03E
:100F80001382128288EE93E0A0E0B0E08483958320
:100F9000A683B78387E191E09183808385EC90E01D
:100FA0009587848784EC90E09787868780EC90E033
:100FB000918B808B81EC90E0938B828B82EC90E024
:100FC000958B848B86EC90E0978B868B118E128E9E
:100FD000138E148EE9E9F2E01382128289E291E025
:100FE0009183808388E084838FEF858389E0868383
:100FF00084E0878385E0808786E0818787E0828739
:101000001386148615861686178681E00C944C0488
:10101000CF93DF93CDB7DEB72C970FB6F894DEBF32
:101020000FBECDBF789484B5826084BD84B58160E5
:1010300084BD85B5826085BD85B5816085BD8091A3
:101040006E00816080936E0010928100809181001B
:101050008260809381008091810081608093810013
:10106000809180008160809380008091B1008460D5
:101070008093B1008091B00081608093B000809136
:101080007A00846080937A0080917A0082608093F5
:101090007A0080917A00816080937A0080917A0052
:1010A000806880937A001092C100E0910C02F09168
:1010B0000D0282E08083E0910802F0910902108223
:1010C000E0910A02F0910B0280E1808310921402F9
:1010D000E0911002F091110286E08083E0910E020F
:1010E000F0910F02808180618083E0910E02F09187
:1010F0000F02808188608083E0910E02F0910F02E0
:10110000808180688083E0910E02F0910F028081DF
:101110008F7D808382E00E944C040E94440460E042
:1011200080E00E94ED0467E671E089E992E00E94A8
:101130006C0661E080E00E94ED046DE371E089E9F6
:1011400092E00E946C0662E08FE00E942B0162E058
:1011500080E10E942B0162E081E10E942B0110924C
:1011600080001092810010928500109284001092ED
:10117000CE011092CD0181E080936F0080918100BB
:101180008260809381008DE593E090930C018093C1
:101190000B012091CB01298382E00E949D008EECFF
:1011A00092E090930A018093090184E00E949D00DF
:1011B00089E193E0909308018093070139813E60B3
:1011C0003093CB0188E00E949D0061E08CE00E949A
:1011D0002B0161E08DE00E942B0161E08DE00E9417
:1011E000FD0061E08BE00E942B011092B000109294
:1011F000B1008091B00082608093B0008091B00017
:1012000080648093B00061E08DE00E94FD000E9448
:10121000C802B4E62B2E312C0E948C008C3F9340E8
:101220000CF091C50E9481010E948C0021E0823364
:10123000910574F123E0883C910554F124E08C374A
:1012400051E095072CF122E08835A2E09A0704F1DD
:10125000803293400CF435C505E110E00E948C000B
:10126000883E93400CF06FC50E9481010150110926
:10127000A9F782E0809311018091A9028D7F80936C
:10128000A90288600E943E0481E080930F0126E05D
:1012900090911101913009F065C16091E401709164
:1012A000E5018091E6019091E701223009F0D3C079
:1012B00080910D0190910E019C01215031092A303D
:1012C000310509F4C2C02C30310509F4BEC0309399
:1012D0000E0120930D0180910D0190910E01069752
:1012E00034F44DE050E050930E0140930D0120E0A6
:1012F00030E0A9016091E4017091E5018091E6017F
:101300009091E7010E94AA0F87FF08C01092E401A4
:101310001092E5011092E6011092E70120E030E41E
:1013200042E755E46091E4017091E5018091E601A6
:101330009091E7010E946111181664F480E090E436
:10134000A2E7B5E48093E4019093E501A093E60160
:10135000B093E7010E94440460E080E00E94ED0445
:1013600065E771E089E992E00E946C0661E080E047
:101370000E94ED0463E871E089E992E00E946C0646
:101380006091E4017091E5018091E6019091E7019F
:101390000E9421107B0198EEE91693E0F9060CF407
:1013A000DEC0C70168EE73E00E94EC11CB010E9421
:1013B0005D05C70168EE73E00E94EC11B1010E9467
:1013C000EC11CB010E945D05C701B1010E94EC1137
:1013D0006AE070E00E94EC11CB010E945D05C7013C
:1013E0006AE070E00E94EC110E945D056BE871E01C
:1013F00089E992E00E946C06C090E401D090E5017A
:10140000E090E601F090E701C701B6010E94941058
:101410009B01AC01C701B6010E943D0F20E030E006
:1014200040E251E40E9466110E942110CB010E940B
:101430005D0561E080910D010E94ED045BC4982F71
:1014400092609093A9028A6053C4029790930E0110
:1014500080930D0140CF2130F1F480910D019091E6
:101460000E019C012D7F2930310599F00196909352
:101470000E0180930D0180910D0190910E010E9748
:101480000CF435CF86E090E090930E0180930D012F
:101490002ECF0296ECCF233009F0CBC420910D0162
:1014A00030910E012630310579F420E030E04AE732
:1014B00054E40E943E0F6093E4017093E501809331
:1014C000E6019093E70113CF2730310529F420E09E
:1014D00030E048EC52E4EDCF2830310529F420E02B
:1014E00030E040E251E4E5CF2930310529F420E035
:1014F00030E040E85FE3DDCF2B30310529F52DECFE
:101500003CEC4CEC5DE3D5CF2730310529F420E0ED
:1015100030E048EC52E49CC42830310529F420E046
:1015200030E040E251E494C42930310529F420E050
:1015300030E040E85FE38CC42B30310529F42DEC1A
:101540003CEC4CEC5DE384C42D30310509F0CFCE8A
:101550008091120191E0892780931201C8CE90E01A
:1015600080E025CF911127C16091E8017091E901D8
:101570008091EA019091EB01223009F040C0809106
:101580000D0190910E019C01215031092A30310545
:1015900081F12C30310569F130930E0120930D015A
:1015A00080910D0190910E01079734F4ADE0B0E009
:1015B000B0930E01A0930D01C090E801D090E90115
:1015C000E090EA01F090EB0120E030E044EB53E4DE
:1015D000C701B6010E94611187FD84C020E030E0A0
:1015E00044EB53E4C701B6010E943D0F6B017C013F
:1015F000EBCF029790930E0180930D01D1CF213054
:10160000E9F480910D0190910E019C012D7F29300C
:10161000310591F0019690930E0180930D01809118
:101620000D0190910E010E973CF227E030E03093CF
:101630000E0120930D01C0CF0296EDCF233009F0AB
:101640000AC420910D0130910E012730310579F443
:1016500020E030E048EC52E40E943E0F6093E80145
:101660007093E9018093EA019093EB01A5CF2830B4
:10167000310529F420E030E040E251E4EDCF29309B
:10168000310529F420E030E040E85FE3E5CF2B307E
:101690003105E9F42DEC3CEC4CEC5DE3DDCF28307A
:1016A000310529F420E030E040E251E4E3C3293081
:1016B000310529F420E030E040E85FE3DBC32B3064
:1016C000310529F42DEC3CEC4CEC5DE3D3C32D301B
:1016D000310509F071CF8091120191E08927809343
:1016E00012016ACF20E030E0A901C701B6010E94D3
:1016F000AA0F87FF0BC020E030E044EB53E4C701A2
:10170000B6010E943E0F6B017C01ECCFC092E80154
:10171000D092E901E092EA01F092EB010E944404C8
:1017200060E080E00E94ED046DE871E089E992E0FC
:101730000E946C0661E080E00E94ED046BE971E0BC
:1017400089E992E00E946C066091E8017091E901DC
:101750008091EA019091EB010E9421107B01CB0165
:1017600068EE73E00E94EC11B1010E94EC11CB0114
:101770000E945D05C701B1010E94EC116AE070E0B2
:101780000E94EC11CB010E945D05C7016AE070E088
:101790000E94EC110E945D056BE871E089E992E01E
:1017A0000E946C06C090E801D090E901E090EA0147
:1017B000F090EB0129CE8FEF820F823030F48091D0
:1017C000100191E08927809310010E94440460E099
:1017D00080E00E94ED0467E671E089E992E00E94F2
:1017E0006C0661E080E00E94ED04809110016DE3E1
:1017F00071E0811102C06FE471E089E992E00E941A
:101800006C0678C260E08DE00E94FD009CC220E082
:1018100030E044E353ECC701B6010E94AA0F87FFF2
:101820000BC020E030E044EB53E4C701B6010E9456
:101830003E0F6B017C01EBCF26013701E89477F86E
:1018400026E636E646E65FE3C301B2010E94611177
:1018500018160CF047C111E020E030E0A901C701E3
:10186000B6010E94611187FD10E0612F8CE00E949B
:10187000FD0026E636E646EE5FE3C301B2010E94B4
:10188000AF0F6B017C0120E030E0A9010E946111E3
:1018900020E030E040E05FE387FD31C1C701B601E1
:1018A0000E943E0F0E9421107B01672B09F41AC190
:1018B0000E94C8021092D4011092D301EE0CFF1CBA
:1018C000F092DB01E092DA018091700082608093F7
:1018D000700087E08093D9018DE48093B3008091FC
:1018E000D9018093B10082E48093B000809111010E
:1018F000813009F0F7C08091EC019091ED01A09149
:10190000EE01B091EF01A5019401281B390B4A0BA0
:101910005B0BDA01C901843F9140A105B10508F4D0
:10192000E1C08092EC019092ED01A092EE01B092A4
:10193000EF018091D5019091D601A091D701B0918E
:10194000D801892B8A2B8B2B09F4DEC06091D5013D
:101950007091D6018091D7019091D8010E945710C3
:101960009B01AC0160E074E284EF99E40E94AF0F48
:1019700020E030E040E752E40E9466116D837E83F0
:101980008F8398878091E4019091E501A091E60111
:10199000B091E70189839A83AB83BC832D813E811B
:1019A0004F815885BC01CD010E943D0F4B015C0168
:1019B0002091E0013091E1014091E2015091E30179
:1019C0000E943E0F6B017C01C092E001D092E101C8
:1019D000E092E201F092E3012091DC013091DD011F
:1019E0004091DE015091DF01C501B4010E943D0F1D
:1019F0002AE037ED43EA5EE30E94661169877A8741
:101A00008B879C872DEC3CEC4CE45EE3C501B40174
:101A10000E9466112B013C012DEC3CEC4CE45DE393
:101A2000C701B6010E9466119B01AC01C301B2015E
:101A30000E943E0F9B01AC0169857A858B859C8550
:101A40000E943E0F9B01AC018092DC019092DD016F
:101A5000A092DE01B092DF0169817A818B819C8145
:101A60000E943E0F2B013C0120E030E0A9010E94C2
:101A7000AA0F87FD4EC020E030E0A901C301B201EA
:101A80000E94AA0F18160CF448C00E94C80264EA0B
:101A900071E08CEF91E00E946C0642E06D817E81E6
:101AA0008F8198850E948A056DEA71E08CEF91E044
:101AB0000E946C0642E069817A818B819C810E9440
:101AC0008A0564EB71E08CEF91E00E946C0642E0C5
:101AD000C301B2010E948A056BEB71E08CEF91E0CB
:101AE0000E94020580E090E0892B09F495CB0E94CA
:101AF0002102882309F490CB0E9400008DCBC701FE
:101B0000B6010E943D0FCECE1D821E821F82188616
:101B100039CF412C512C3201B8CF20E030E048E4DD
:101B200053E4C301B2010E94661120E030E040E7B7
:101B300052E40E94AF0F4B015C011092DB01109246
:101B4000DA0120E030E0A9010E94AA0F18160CF07B
:101B50009CCFC501B4010E9428106B017C0120E0DC
:101B60003AE145EF56E4C501B4010E94611187FDD9
:101B70002DC081E08093D901A7019601220F331F68
:101B8000441F551F60E074E284EF90E00E94001251
:101B9000DA01C9010197A109B1098F3F9105A1059A
:101BA000B10529F020F08FEF90E0A0E0B0E0809345
:101BB000B3008091D9018093B10082E48093B0009A
:101BC000809170008D7F8093700061CF20E030E1C4
:101BD00045E755E4C501B4010E94611187FD0DC0C0
:101BE00082E08093D901A7019601E4E0220F331F20
:101BF000441F551FEA95D1F7C5CF20E030E045E7F7
:101C000054E4C501B4010E94611187FD0DC083E059
:101C10008093D901A701960176E0220F331F441F5C
:101C2000551F7A95D1F7AECF20E030E045EF53E471
:101C3000C501B4010E94611187FD0DC084E080934D
:101C4000D901A701960167E0220F331F441F551FDA
:101C50006A95D1F797CF20E030E045E753E4C5011E
:101C6000B4010E94611187FD08C085E08093D9010D
:101C70005E2D4D2D3C2D222785CF20E030E044EF16
:101C800052E4C501B4010E94611187FD0DC086E0D8
:101C90008093D901A701960199E0220F331F441FB9
:101CA000551F9A95D1F76ECF87E08093D901A70190
:101CB00096018BE0220F331F441F551F8A95D1F7E1
:101CC00061CF80911101823021F4809110018093C5
:101CD000110190910F0181E0982790930F0180915D
:101CE000A902992309F4ABCB8D7F8093A902886068
:101CF0000E943E04809111018230A9F010911201DE
:101D000061E08EE00E94ED0461E671E0111102C015
:101D100064E671E089E992E00E946C0661E08091DE
:101D20000D010E94ED04609112018CE00E94FD0003
:101D300080911101823009F065CD61E08DE00E9453
:101D4000FD000E94C8028FB7F8948090F101909036
:101D5000F201A090F301B090F4018FBF80911101C6
:101D60008111C4CD8091EC019091ED01A091EE0123
:101D7000B091EF01A5019401281B390B4A0B5B0BB5
:101D8000DA01C90184369105A105B10508F4AACE8E
:101D90008092EC019092ED01A092EE01B092EF01E1
:101DA0006091D1017091D201E090CF01F090D0010B
:101DB00090E080E00E9457102FE832EC45E75EE3A8
:101DC0000E9466112B013C01B70190E080E00E9467
:101DD00057102FE832EC45E75EE30E9466119B0145
:101DE000AC01C301B2010E943E0F20E030E040E0B0
:101DF0005FE30E9466119B01AC016091E801709164
:101E0000E9018091EA019091EB010E943D0F6B0185
:101E10007C0120E030E044E353E40E946111181695
:101E20000CF0F5CC20E030E044EB53E4C701B60100
:101E3000ECCF243009F05BCA20910D0130910E01E6
:101E40002630310509F060CB20E030E04AE754E469
:101E50000E943D0F30CB243009F0AECB20910D0114
:101E600030910E012730310509F019CC20E030E027
:101E700048EC52E40E943D0FF1CB5058BB27AA27F3
:101E80000E94550F0C940F110E94011138F00E940E
:101E9000081120F039F49F3F19F426F40C94FE1039
:101EA0000EF4E095E7FB0C94CF10E92F0E9420116F
:101EB00058F3BA17620773078407950720F079F47F
:101EC000A6F50C945A110EF4E0950B2EBA2FA02D06
:101ED0000B01B90190010C01CA01A0011124FF27D7
:101EE000591B99F0593F50F4503E68F11A16F040D2
:101EF000A22F232F342F4427585FF3CF46953795D1
:101F00002795A795F0405395C9F77EF41F16BA0B95
:101F1000620B730B840BBAF09150A1F0FF0FBB1F43
:101F2000661F771F881FC2F70EC0BA0F621F731F8C
:101F3000841F48F4879577956795B795F7959E3FE9
:101F400008F0B0CF9395880F08F09927EE0F97957A
:101F5000879508950E94AB1008F481E008950E94CF
:101F6000C30F0C940F110E94081158F00E94011128
:101F700040F029F45F3F29F00C94CF1051110C94DC
:101F80005B110C94FE100E94201168F39923B1F3A9
:101F9000552391F3951B550BBB27AA27621773078F
:101FA000840738F09F5F5F4F220F331F441FAA1F23
:101FB000A9F335D00E2E3AF0E0E832D091505040DF
:101FC000E695001CCAF72BD0FE2F29D0660F771F8D
:101FD000881FBB1F261737074807AB07B0E809F073
:101FE000BB0B802DBF01FF2793585F4F3AF09E3FF8
:101FF000510578F00C94CF100C945B115F3FE4F323
:10200000983ED4F3869577956795B795F7959F5F3A
:10201000C9F7880F911D9695879597F90895E1E086
:10202000660F771F881FBB1F621773078407BA07E5
:1020300020F0621B730B840BBA0BEE1F88F7E09540
:1020400008950E9428106894B1110C945B110895B2
:102050000E94281188F09F5798F0B92F9927B751FF
:10206000B0F0E1F0660F771F881F991F1AF0BA953C
:10207000C9F714C0B13091F00E945A11B1E008952F
:102080000C945A11672F782F8827B85F39F0B93F21
:10209000CCF3869577956795B395D9F73EF49095EF
:1020A0008095709561957F4F8F4F9F4F0895E8946D
:1020B00009C097FB3EF490958095709561957F4F90
:1020C0008F4F9F4F9923A9F0F92F96E9BB2793953E
:1020D000F695879577956795B795F111F8CFFAF44E
:1020E000BB0F11F460FF1BC06F5F7F4F8F4F9F4F7F
:1020F00016C0882311F096E911C0772321F09EE8DD
:10210000872F762F05C0662371F096E8862F70E042
:1021100060E02AF09A95660F771F881FDAF7880F1C
:102120009695879597F908950E94421190F09F37F0
:1021300048F4911116F00C945B1160E070E080E8B7
:102140009FEB089526F41B16611D711D811D0C94D3
:10215000D5100C94F010990F0008550FAA0BE0E869
:10216000FEEF16161706E807F907C0F01216130659
:10217000E407F50798F0621B730B840B950B39F499
:102180000A2661F0232B242B252B21F408950A26FF
:1021900009F4A140A6958FEF811D811D089597F93F
:1021A0009F6780E870E060E00895882371F47723EA
:1021B00021F09850872B762F07C0662311F49927BA
:1021C0000DC09051862B70E060E02AF09A95660F62
:1021D000771F881FDAF7880F9695879597F90895E6
:1021E0009F3F31F0915020F4879577956795B7958B
:1021F000880F911D9695879597F908959FEF80EC2C
:10220000089500240A94161617061806090608955C
:1022100000240A9412161306140605060895092EC2
:102220000394000C11F4882352F0BB0F40F4BF2B31
:1022300011F460FF04C06F5F7F4F8F4F9F4F089571
:1022400057FD9058440F551F59F05F3F71F0479567
:10225000880F97FB991F61F09F3F79F0879508954C
:10226000121613061406551FF2CF4695F1DF08C06B
:10227000161617061806991FF1CF86957105610588
:10228000089408950E942811A0F0BEE7B91788F4B9
:10229000BB279F3860F41616B11D672F782F88274B
:1022A000985FF7CF869577956795B11D9395963989
:1022B000C8F30895E894BB2766277727CB0197F9E1
:1022C00008950E94AB1008F48FEF08950E947911D1
:1022D0000C940F110E94011138F00E94081120F097
:1022E000952311F00C94CF100C94FE1011240C9433
:1022F0005B110E94201170F3959FC1F3950F50E080
:10230000551F629FF001729FBB27F00DB11D639FA7
:10231000AA27F00DB11DAA1F649F6627B00DA11D4D
:10232000661F829F2227B00DA11D621F739FB00DF3
:10233000A11D621F839FA00D611D221F749F332763
:10234000A00D611D231F849F600D211D822F762FFC
:102350006A2F11249F5750409AF0F1F088234AF0D9
:10236000EE0FFF1FBB1F661F771F881F9150504045
:10237000A9F79E3F510580F00C94CF100C945B118F
:102380005F3FE4F3983ED4F3869577956795B795CC
:10239000F795E7959F5FC1F7FE2B880F911D9695E6
:1023A000879597F908950E94AB10880B990B0895B3
:1023B000AA1BBB1B51E107C0AA1FBB1FA617B7076B
:1023C00010F0A61BB70B881F991F5A95A9F7809587
:1023D0009095BC01CD01089597FB072E16F400944B
:1023E00007D077FD09D00E94D81107FC05D03EF434
:1023F000909581959F4F0895709561957F4F0895B1
:10240000A1E21A2EAA1BBB1BFD010DC0AA1FBB1FF8
:10241000EE1FFF1FA217B307E407F50720F0A21B6A
:10242000B30BE40BF50B661F771F881F991F1A94D7
:1024300069F760957095809590959B01AC01BD0101
:10244000CF010895EE0FFF1F0590F491E02D099440
:10245000F894FFCF01B601B601B601B601B601B6D8
:1024600001070001010201000000005702B701E46A
:1024700001A4021502F301070200000000FC04B7EA
:1024800001C502C4026E616E00696E66006F7666F9
:10249000003E20535045454420202020414E474CCB
:1024A0004520002020535045454420203E20414EE9
:1024B000474C45200043570043430020434F4E54B0
:1024C000524F4C20545950450020202053706565D0
:1024D00064204D6F64650053706565643A20002E7A
:1024E00000202020416E676C65204D6F64650041BF
:1024F0006E676C653A20200052504D206163743A3B
:102500000020207467743A002020636D643A000D47
:022510000A00BF
:107E0000112484B714BE81FFF0D085E080938100F7
:107E100082E08093C00088E18093C10086E0809377
:107E2000C20080E18093C4008EE0C9D0259A86E02C
:107E300020E33CEF91E0309385002093840096BBD3
:107E4000B09BFECF1D9AA8958150A9F7CC24DD24C4
:107E500088248394B5E0AB2EA1E19A2EF3E0BF2EE7
:107E6000A2D0813461F49FD0082FAFD0023811F036
:107E7000013811F484E001C083E08DD089C08234E0
:107E800011F484E103C0853419F485E0A6D080C0E4
:107E9000853579F488D0E82EFF2485D0082F10E0AE
:107EA000102F00270E291F29000F111F8ED06801E7
:107EB0006FC0863521F484E090D080E0DECF843638
:107EC00009F040C070D06FD0082F6DD080E0C81688
:107ED00080E7D80618F4F601B7BEE895C0E0D1E017
:107EE00062D089930C17E1F7F0E0CF16F0E7DF06D8
:107EF00018F0F601B7BEE89568D007B600FCFDCFD4
:107F0000A601A0E0B1E02C9130E011968C91119780
:107F100090E0982F8827822B932B1296FA010C0160
:107F200087BEE89511244E5F5F4FF1E0A038BF0790
:107F300051F7F601A7BEE89507B600FCFDCF97BE46
:107F4000E89526C08437B1F42ED02DD0F82E2BD052
:107F50003CD0F601EF2C8F010F5F1F4F84911BD097
:107F6000EA94F801C1F70894C11CD11CFA94CF0C13
:107F7000D11C0EC0853739F428D08EE10CD085E9AC
:107F80000AD08FE07ACF813511F488E018D01DD067
:107F900080E101D065CF982F8091C00085FFFCCF94
:107FA0009093C60008958091C00087FFFCCF809118
:107FB000C00084FD01C0A8958091C6000895E0E648
:107FC000F0E098E1908380830895EDDF803219F02E
:107FD00088E0F5DFFFCF84E1DECF1F93182FE3DFCA
:107FE0001150E9F7F2DF1F91089580E0E8DFEE27F6
:047FF000FF270994CA
:027FFE00040479
:00000001FF
