:020000040000FA
:100000000C945D000C9485000C9485000C946B0B93
:100010000C9485000C945C0B0C9485000C947A0B6A
:100020000C9485000C9485000C9485000C9485003C
:100030000C9485000C9485000C9485000C9485002C
:100040000C94BA0A0C9485000C942A0B0C94040BA3
:100050000C9485000C9485000C9485000C9485000C
:100060000C9485000C94850000000008000201003B
:100070000003040700000000000000000000000072
:10008000250028002B0000000000240027002A0083
:10009000040404040404040402020202020203032E
:1000A0000303030301020408102040800102040836
:1000B0001020010204081020C80B11241FBECFEF2E
:1000C000D8E0DEBFCDBF13E0A0E0B1E0ECEFF2E29C
:1000D00002C005900D92A23AB107D9F724E0A2EA36
:1000E000B3E001C01D92A939B207E1F710E0CDE5F8
:1000F000D0E004C02197FE010E947611CC35D107D3
:10010000C9F70E94120C0C947C110C94000090E032
:10011000FC01EC55FF4F249180579F4FFC018491C7
:10012000882399F090E0880F991FFC01EA57FF4F50
:10013000A591B491FC01E458FF4F859194918FB73C
:10014000F894EC91E22BEC938FBF089580E48093B8
:100150007C0080917A00806480937A0080917A009C
:1001600086FDFCCF8091780090917900089590E011
:10017000FC01E859FF4F2491FC01EC55FF4F3491ED
:10018000FC01E057FF4FE491EE23C9F0222339F040
:10019000233001F1A8F4213019F1223029F1F0E0E7
:1001A000EE0FFF1FE458FF4FA591B4918FB7F8945D
:1001B000EC91611126C030953E233C938FBF08958A
:1001C0002730A9F02830C9F0243049F78091800009
:1001D0008F7D03C0809180008F7780938000DFCF78
:1001E00084B58F7784BDDBCF84B58F7DFBCF8091C5
:1001F000B0008F778093B000D2CF8091B0008F7D18
:10020000F9CF3E2BDACF3FB7F8948091DB03909182
:10021000DC03A091DD03B091DE0326B5A89B05C0E9
:100220002F3F19F00196A11DB11D3FBFBA2FA92F75
:10023000982F8827BC01CD01620F711D811D911D72
:1002400042E0660F771F881F991F4A95D1F70895DE
:100250008F929F92AF92BF92CF92DF92EF92FF92D6
:100260000E9403014B015C0184E6C82ED12CE12CD5
:10027000F12C0E940301681979098A099B09683EDB
:10028000734081059105A8F321E0C21AD108E10865
:10029000F10888EE880E83E0981EA11CB11CC114E1
:1002A000D104E104F10429F7FF90EF90DF90CF90A3
:1002B000BF90AF909F908F900895AF92BF92CF92D2
:1002C000DF92EF92FF920F931F93CF93DF936C0116
:1002D0007B018B01040F151FEB015E01AE18BF08F7
:1002E000C017D10759F06991D601ED91FC910190A9
:1002F000F081E02DC6010995892B79F7C501DF91C1
:10030000CF911F910F91FF90EF90DF90CF90BF9012
:10031000AF900895FC01538D448D252F30E0842F3C
:1003200090E0821B930B541710F0CF96089501971D
:100330000895FC01918D828D981761F0A28DAE0F0A
:10034000BF2FB11D5D968C91928D9F5F9F73928F91
:1003500090E008958FEF9FEF0895FC01918D828DBD
:10036000981731F0828DE80FF11D858D90E008958A
:100370008FEF9FEF0895FC01918D228D892F90E0E2
:10038000805C9F4F821B91098F739927089584EE9B
:1003900093E00E94BB0121E0892B09F420E0822F29
:1003A000089580E090E0892B29F00E94C701811117
:1003B0000C9400000895FC01A48DA80FB92FB11D65
:1003C000A35ABF4F2C91848D90E001968F7399278B
:1003D000848FA689B7892C93A089B1898C91837069
:1003E00080648C93938D848D981306C00288F38962
:1003F000E02D80818F7D80830895EF92FF920F938F
:100400001F93CF93DF93EC0181E0888F9B8D8C8DC0
:1004100098131AC0E889F989808185FF15C09FB7B4
:10042000F894EE89FF896083E889F9898081837077
:10043000806480839FBF81E090E0DF91CF911F9126
:100440000F91FF90EF900895F62E0B8D10E00F5F47
:100450001F4F0F731127E02E8C8D8E110CC00FB61D
:1004600007FCFACFE889F989808185FFF5CFCE01B5
:100470000E94DB01F1CFEB8DEC0FFD2FF11DE35A54
:10048000FF4FF0829FB7F8940B8FEA89FB89808138
:100490008062CFCFCF93DF93EC01888D8823B9F0B2
:1004A000AA89BB89E889F9898C9185FD03C080817F
:1004B00086FD0DC00FB607FCF7CF8C9185FFF2CFFC
:1004C000808185FFEDCFCE010E94DB01E9CFDF9176
:1004D000CF9108950895089590E080E00895E1EBAC
:1004E000F0E08081887F80830895CF93DF93EC01D3
:1004F0000E946F021092E3031092E203CC0FDD1F03
:10050000D093E103C093E003E0E7F0E080818260F4
:10051000808387E08093DF038DE48093B300809134
:10052000DF03E1EBF0E0808382E48093B000809110
:10053000DF038083DF91CF910895CF92DF92EF9216
:10054000FF928091B8039091B9036091B8037091C4
:10055000B903181619061CF0719561957109072EDB
:10056000000C880B990B0E94AD0F2AE939E949E983
:100570005FE30E94BA106B017C018091B6039091F9
:10058000B7036091B6037091B703181619061CF0F3
:10059000719561957109072E000C880B990B0E94CB
:1005A000AD0F2AE939E949E95FE30E94BA109B01DE
:1005B000AC01C701B6010E94920E20E030E040E09D
:1005C0005FE30E94BA10FF90EF90DF90CF90089504
:1005D000CF93DF93EC0160E08E810E94B70061E071
:1005E0008E810E94B70060E08E810E94B7008BE888
:1005F00091E00197F1F7DF91CF910895CF92DF92CB
:10060000EF92FF920F931F93CF93DF936C017C01C6
:1006100087E0E80EF11CD0E0C0E0062F10E0B80142
:100620000C2E02C0759567950A94E2F76170F70188
:1006300081917F010E94B7002196C430D10579F7DE
:10064000C601DF91CF911F910F91FF90EF90DF9046
:10065000CF900C94E802CF92DF92EF92FF920F932B
:100660001F93CF93DF93EC01F62E642F8C810E94B1
:10067000B7008D818F3F19F060E00E94B7000F2D09
:1006800010E08F8584FF25C06E0187E0C80ED11C65
:10069000F12CE12CB8010E2C02C0759567950A94D7
:1006A000E2F76170F60181916F010E94B700FFEFE0
:1006B000EF1AFF0A88E0E816F10461F7CE01DF9136
:1006C000CF911F910F91FF90EF90DF90CF900C94FE
:1006D000E802B80184E0759567958A95E1F7CE0147
:1006E0000E94FE026F2DCE01DF91CF911F910F91DD
:1006F000FF90EF90DF90CF900C94FE0240E0682FC7
:1007000081E894E00C942B0381E00E947E038BE34C
:100710009FE10197F1F70895CF93DF93823029F499
:100720009091900498609093900480939404109218
:10073000950480E48093960480E18093970480E59B
:1007400080939804809185040E948700809186049C
:100750008F3F11F00E948700809187040E948700DC
:10076000C1E8D4E09E01215834408091900484FD7A
:100770000AC084E090E02196281739073CF48E8166
:100780000E948700EFCF88E090E0F5CF8BE39DE0FB
:100790000197F1F760E0809185040E94B70060E066
:1007A000809187040E94B700809186048F3F19F0E2
:1007B00060E00E94B7008091900484FD34C063E043
:1007C00081E894E00E94FE02CBE4D6E4CE010197DA
:1007D000F1F763E081E894E00E94FE022197F1F7CF
:1007E00063E081E894E00E94FE0283E592E00197D5
:1007F000F1F762E081E894E00E94FE0280919004AB
:1008000080620E947E0384E0809391048CE00E94C9
:100810007E030E94840382E08093920486E0DF914D
:10082000CF910C947E0380620E947E038BE496E459
:100830000197F1F78091900480620E947E0383E526
:1008400092E00197F1F78091900480620E947E030C
:10085000D5CF90919404691710F06FEF690FE62FD0
:10086000F0E0EF57FB4F9489890F80680C947E036A
:10087000E1E8F4E080898D7F808B88600C947E03B2
:1008800080911F01882359F010921F0180919104DB
:10089000982F9260909391048A600C947E0381E07B
:1008A00080931F010C94380441E00E942B0381E0E7
:1008B00090E00895FB0101900020E9F73197AF0126
:1008C000461B570BDC01ED91FC910280F381E02D7A
:1008D00009948F929F92AF92BF92EF92FF920F93E3
:1008E0001F93CF93DF93CDB7DEB7A1970FB6F894E0
:1008F000DEBF0FBECDBF7C01FA01CB0119A22230B1
:1009000008F42AE08E010F5D1F4F822E912CB12C2E
:10091000A12CBF01A50194010E944011F901CA0157
:100920006A300CF5605DD8016E938D01232B242B6A
:10093000252B79F790E080E0109721F0BD01C701E9
:100940000E945A04A1960FB6F894DEBF0FBECDBF29
:10095000DF91CF911F910F91FF90EF90BF90AF90DB
:100960009F908F900895695CDECFCF92DF92EF92D7
:10097000FF920F931F93CF93DF936B01770FEE08D6
:10098000FF08F7FE1FC0EC01E881F9810190F081BA
:10099000E02D6DE209958C0144275527BA014C19C9
:1009A0005D096E097F092AE0CE010E946904800F6B
:1009B000911FDF91CF911F910F91FF90EF90DF90EA
:1009C000CF9008952AE0B701A601DF91CF911F9142
:1009D0000F91FF90EF90DF90CF900C946904CF932C
:1009E000DF93BC0184EE93E00E945A04EC016FE3B4
:1009F00071E084EE93E00E945A048C0F9D1FDF91FA
:100A0000CF9108954F925F926F927F928F929F92B3
:100A1000AF92BF92CF92DF92EF92FF920F931F930C
:100A2000CF936B017C01742EAC019B010E942711B6
:100A300062E471E0811126C046015701E894B7F8DD
:100A40002FEF3FEF4FE75FE7C501B4010E94271189
:100A500081110CC02FEF3FEF4FE75FE7C501B401F5
:100A60000E94FE0E66E471E0181664F02FEF3FEF6F
:100A70004FE75FE4C701B6010E94B5101816ACF449
:100A80006AE471E084EE93E0CF911F910F91FF90A3
:100A9000EF90DF90CF90BF90AF909F908F907F901E
:100AA0006F905F904F900C945A042FEF3FEF4FE7F9
:100AB0005FECC701B6010E94FE0E87FDE1CF20E08A
:100AC00030E0A901C701B6010E94FE0E10E000E06F
:100AD00087FF0AC06DE284EE93E00E94FD018C0165
:100AE000F7FAF094F7F8F094C0E060E070E080E08E
:100AF0009FE37C1641F020E030E040E251E40E94A8
:100B0000030FCF5FF6CFA70196010E94920E2B0133
:100B10003C010E947C0F4B015C012AE0BC01A40156
:100B200084EE93E00E9469047C01E00EF11ECC2368
:100B3000D1F1C501B4010E94AB0F9B01AC01C3010F
:100B4000B2010E94910E4B015C016EE284EE93E0D3
:100B50000E94FD01E80EF91EC15028F120E030E0AE
:100B600040E251E4C501B4010E94BA102B013C01DE
:100B70000E947C0F4B01B12CA12C2AE0B501A401ED
:100B800084EE93E00E946904E80EF91EC501B401E9
:100B90000E94AB0F9B01AC01C301B2010E94910EF8
:100BA0004B015C01D9CFC701CF911F910F91FF90ED
:100BB000EF90DF90CF90BF90AF909F908F907F90FD
:100BC0006F905F904F9008950C945A04CF92DF92EB
:100BD000EF92FF926B017C0120E030E0A9010E94BE
:100BE000FE0E811102C00E946F026EE471E084EE7D
:100BF00093E00E94E40542E0C701B6010E940205AD
:100C00006FE371E084EE93E00E945A0420E030E04C
:100C100048E453E4C701B6010E94BA1020E030E076
:100C200040E752E40E94030F0E947C0F6093BB03D5
:100C30007093BC038093BD039093BE0367E771E09C
:100C400084EE93E00E94E4054091BB035091BC0305
:100C50006091BD037091BE032AE084EE93E00E9490
:100C600069046FE371E084EE93E00E945A0460919E
:100C7000BB037091BC038091BD039091BE030E94A1
:100C8000AB0F6B017C0120E030E0A9010E94FE0E59
:100C90008823C9F120E03AE145EF56E4C701B601E7
:100CA0000E94B51087FD34C081E08093DF03A70167
:100CB0009601C701B6010E94920E9B01AC0160E053
:100CC00074E284E79BE40E94030F20E030E040E8F8
:100CD0005FE30E94910E0E947C0F6B017C018FEFFD
:100CE000C816D104E104F10429F020F0C12CD12C64
:100CF0007601CA94C092B3008091DF038093B10063
:100D000082E48093B000FF90EF90DF90CF90089541
:100D100020E030E145E755E4C701B6010E94B51077
:100D200087FD0CC082E08093DF0320E030E040E8E4
:100D300051E4C701B6010E94BA10BFCF20E030E0F5
:100D400045E754E4C701B6010E94B51087FD08C00D
:100D500083E08093DF0320E030E040E852E4E9CF15
:100D600020E030E045EF53E4C701B6010E94B51022
:100D700087FD08C084E08093DF0320E030E040E09E
:100D800053E4D7CF20E030E045E753E4C701B60194
:100D90000E94B51087FD08C085E08093DF0320E046
:100DA00030E040E853E4C5CF20E030E044EF52E4C7
:100DB000C701B6010E94B51087FD08C086E0809388
:100DC000DF0320E030E040E054E4B3CF87E08093DD
:100DD000DF0320E030E040E055E4ABCFCF93C82FF5
:100DE00061E08EE00E9429046CE971E0C11102C04B
:100DF0006FE971E081E894E00E94E40561E0809190
:100E00001D01CF910C9429049091200127E030E03E
:100E1000913011F426E030E0813009F452C0823084
:100E2000F9F480911D0190911E01AC0141505109CE
:100E30004A30510509F43FC04C305105E1F150935F
:100E40001E0140931D0180911D0190911E0182178A
:100E5000930734F48DE090E090931E0180931D0180
:100E600062EA71E084EE93E00E94E40560911D0166
:100E700070911E0184EE93E00E94B5046FE371E06F
:100E800084EE93E00E945A0461E08DE00E94290400
:100E900080911D0190911E010D9779F561EB71E034
:100EA00081E894E00E94E4050E94380461E08091AA
:100EB0001D010C942904029790931E0180931D013B
:100EC000C2CF80911D0190911E01AC014D7F493030
:100ED000510589F0019690931E0180931D01809128
:100EE0001D0190911E010E970CF4BACF30931E0194
:100EF00020931D01B5CF0296EECF68ED71E081E839
:100F000094E00E94E40580919104982F9260909360
:100F100091048A600E947E03C9CFCF92DF92EF9244
:100F2000FF920F931F93CF93DF93C82F83EB91E032
:100F30000E94EF04C630B1F40E94840360E080E0B8
:100F40000E94290463EC71E081E894E00E94E405CA
:100F500061E080E00E94290461ED71E081E894E0A5
:100F60000E94E4058C2F0E940407C33009F4AAC034
:100F7000C43009F4EAC0C090CD03D090CE03E09015
:100F8000CF03F090D00320E030E044EB53E4C701FE
:100F9000B6010E94B510181684F420E030E044EB4E
:100FA00053E4C701B6010E94910E6093CD03709384
:100FB000CE038093CF039093D003C090CD03D09005
:100FC000CE03E090CF03F090D00320E030E0A90101
:100FD000C701B6010E94FE0E87FF10C020E030E07E
:100FE00044EB53E4C701B6010E94920E6093CD0317
:100FF0007093CE038093CF039093D0036091CD0381
:101000007091CE038091CF039091D0030E94750F11
:10101000EB0161E087E00E942904CE0168EE73E0F5
:101020000E942C1104E610E0B8010E942C1181E806
:1010300094E00E94B504CE01B8010E942C110AE090
:1010400010E0B8010E942C1181E894E00E94B504E0
:10105000CE01B8010E942C11BC0181E894E00E94ED
:10106000B5046AED71E081E894E00E94E405C09067
:10107000CD03D090CE03E090CF03F090D003C70112
:10108000B6010E94E80F9B01AC01C701B6010E94A6
:10109000910E20E030E040E251E40E94BA100E943C
:1010A000750F81E894E00E94B50461E080911D0114
:1010B000DF91CF911F910F91FF90EF90DF90CF9034
:1010C0000C94290480911D0190911E018930910595
:1010D00091F1ECF48730910549F120E030E040E2F5
:1010E00051E4089709F047CF6091CD037091CE038A
:1010F0008091CF039091D0030E94920E6093CD0314
:101100007093CE038093CF039093D00334CF8B3072
:101110009105B1F00D9709F02ECF8091C20391E0B7
:1011200089278093C2030E94EE0625CF20E030E09D
:1011300048EC52E4D9CF20E030E040E85FE3D4CF80
:101140002DEC3CEC4CEC5DE3CFCF80911D019091F8
:101150001E018930910519F1ACF487309105D1F069
:1011600020E030E040E251E4089709F004CF6091BC
:10117000CD037091CE038091CF039091D0030E9454
:10118000910EBCCF8B30910529F62DEC3CEC4CEC4C
:101190005DE3EDCF20E030E048EC52E4E8CF20E022
:1011A00030E040E85FE3E3CFCF92DF92EF92FF922F
:1011B0000F931F93CF93DF93C82F8CED91E00E9484
:1011C000EF04C630B1F40E94840360E080E00E9426
:1011D00029046CEE71E081E894E00E94E40561E08E
:1011E00080E00E9429046AEF71E081E894E00E94A7
:1011F000E4058C2F0E940407C33009F4A9C0C43051
:1012000009F4F1C020E030E442E755E46091C903FD
:101210007091CA038091CB039091CC030E94B510CA
:10122000181664F480E090E4A2E7B5E48093C90363
:101230009093CA03A093CB03B093CC0320E030E09B
:10124000A9016091C9037091CA038091CB03909169
:10125000CC030E94FE0E87FF08C01092C9031092B3
:10126000CA031092CB031092CC036091C903709112
:10127000CA038091CB039091CC030E94750FEB01C0
:1012800061E086E00E94290470E060E0C83E83E0EF
:10129000D8072CF0CE0168EE73E00E942C1181E893
:1012A00094E00E94B504CE0168EE73E00E942C1118
:1012B00004E610E0B8010E942C1181E894E00E943D
:1012C000B504CE01B8010E942C110AE010E0B8016B
:1012D0000E942C1181E894E00E94B504CE01B8016F
:1012E0000E942C11BC0181E894E00E94B5046AEDD3
:1012F00071E081E894E00E94E405C090C903D090B9
:10130000CA03E090CB03F090CC03C701B6010E9462
:10131000E80F9B01AC01C701B6010E94910E20E0CD
:1013200030E040E251E40E94BA100E94750F81E85B
:1013300094E00E94B50461E080911D01DF91CF919E
:101340001F910F91FF90EF90DF90CF900C942904A4
:1013500080911D0190911E018830910589F1ECF476
:101360008630910541F120E030E048EC52E40797E7
:1013700009F048CF6091C9037091CA038091CB03F3
:101380009091CC030E94920E6093C9037093CA039C
:101390008093CB039093CC0335CF8B309105A9F08C
:1013A0008D309105B9F0099709F02CCF20E030E09D
:1013B00040E85FE3DFCF20E030E04AE754E4DACFF3
:1013C00020E030E040E251E4D5CF2DEC3CEC4CEC99
:1013D0005DE3D0CF8091C20391E089278093C2035F
:1013E0000E94EE060FCF80911D0190911E01883062
:1013F000910549F1ACF48630910501F120E030E02F
:1014000048EC52E4079709F0FDCE6091C903709152
:10141000CA038091CB039091CC030E94910EB4CF6C
:101420008B309105A9F08D309105A1F2099709F053
:10143000E9CE20E030E040E85FE3E7CF20E030E0B5
:101440004AE754E4E2CF20E030E040E251E4DDCF6F
:101450002DEC3CEC4CEC5DE3D8CFCF93C82F86E26B
:1014600092E00E94EF04C53089F585E392E00E9486
:10147000EF0480912001823060F40E94400480914A
:101480002001823009F474C08091C203CF910C9482
:10149000EE068DE492E00E94EF0480910001882323
:1014A00059F087E892E00E94EF0481E080932001E8
:1014B00086E00E94D408E1CF109220018EE992E0EC
:1014C0000E94EF0486E00E948D07D7CF8091200113
:1014D000882331F0813041F48C2F0E94D408CFCF83
:1014E0008C2F0E948D07CBCF85EB92E00E94EF04FA
:1014F000C63061F40E94840360E080E00E94290409
:1015000060ED72E081E894E00E94E405C150C230D1
:1015100030F48091000191E089278093000161E01F
:1015200080E00E9429046EED72E084EE93E00E9458
:10153000E4056091000170E084EE93E00E94B50440
:101540006FE371E084EE93E00E945A048091000101
:1015500064E172E0882311F062E072E081E894E0D7
:101560000E94E40561E080911D010E94290487CF5B
:10157000CF9108951F920F920FB60F9211242F93BF
:101580003F938F939F93AF93BF938091D703909195
:10159000D803A091D903B091DA033091D60323E0A8
:1015A000230F2D3758F50196A11DB11D2093D603A9
:1015B0008093D7039093D803A093D903B093DA0311
:1015C0008091DB039091DC03A091DD03B091DE03F9
:1015D0000196A11DB11D8093DB039093DC03A093C2
:1015E000DD03B093DE03BF91AF919F918F913F9147
:1015F0002F910F900FBE0F901F90189526E8230F84
:101600000296A11DB11DD2CF1F920F920FB60F925D
:1016100011242F933F934F935F936F937F938F93F7
:101620009F93AF93BF93EF93FF9384EE93E00E9459
:10163000DB01FF91EF91BF91AF919F918F917F91CE
:101640006F915F914F913F912F910F900FBE0F902F
:101650001F9018951F920F920FB60F9211242F937F
:101660008F939F93EF93FF93E091F403F091F50331
:101670008081E091FA03F091FB0382FD1BC0908111
:101680008091FD038F5F8F732091FE03821741F0DD
:10169000E091FD03F0E0EC51FC4F958F8093FD034A
:1016A000FF91EF919F918F912F910F900FBE0F900F
:1016B0001F9018958081F4CF1F920F920FB60F9252
:1016C00011248F9389B18093C1038F910F900FBE26
:1016D0000F901F9018951F920F920FB60F92112422
:1016E0008F9383B18093BF038F910F900FBE0F90A4
:1016F0001F9018951F920F920FB60F9211242F93DF
:101700003F934F935F936F937F938F939F93AF9389
:10171000BF93EF93FF938091E2039091E3030196CF
:101720009093E3038093E2032091E0033091E1037F
:101730008217930758F0809170008D7F809370001E
:101740000E946F021092E3031092E203FF91EF9167
:10175000BF91AF919F918F917F916F915F914F91C9
:101760003F912F910F900FBE0F901F9018951F92D1
:101770000F920FB60F9211248F938091BA038F5F4F
:101780008093BA038F910F900FBE0F901F90189502
:10179000E4EEF3E01382128288EE93E0A0E0B0E082
:1017A00084839583A683B78385E291E091838083C8
:1017B00085EC90E09587848784EC90E09787868716
:1017C00080EC90E0918B808B81EC90E0938B828B0E
:1017D00082EC90E0958B848B86EC90E0978B868BE7
:1017E000118E128E138E148EE1E8F4E013821282B1
:1017F00087E391E09183808388E084838FEF858302
:1018000089E0868384E0878385E0808786E081871E
:1018100087E082871386148615861686178681E0F0
:101820000C948C03789484B5826084BD84B5816007
:1018300084BD85B5826085BD85B5816085BD80919B
:101840006E00816080936E00109281008091810013
:10185000826080938100809181008160809381000B
:10186000809180008160809380008091B1008460CD
:101870008093B1008091B00081608093B00080912E
:101880007A00846080937A0080917A0082608093ED
:101890007A0080917A00816080937A0080917A004A
:1018A000806880937A001092C100E091F403F09177
:1018B000F50382E08083E091F003F091F103108260
:1018C000E091F203F091F30380E180831092FC0336
:1018D000E091F803F091F90386E08083E091F6034C
:1018E000F091F703808180618083E091F603F091AD
:1018F000F703808188608083E091F603F091F7031D
:10190000808180688083E091F603F091F703808105
:101910008F7D808382E00E948C030E94840386E096
:101920000E942D0A84E093E00E94EF048DE08093F2
:10193000C4038CE08093C3038DE00E9487008CE099
:101940000E9487008BE00E9487001092B0001092E6
:10195000B1008091B00082608093B0008091B000AF
:1019600080648093B0008091B00080618093B0006B
:1019700060E070E088EC92E40E94E60561E080910E
:10198000C4030E94B7000E946F020E94280190E4E5
:10199000892E92E4992E9FE0A92EB12C22E0722E7E
:1019A00000E010E00E94A600D0E0C0E08C3F934031
:1019B0000CF066C00E9428010E94A600C1E0D0E0A1
:1019C00082339105C4F0C3E0D0E0883C91059CF0DF
:1019D000C4E0D0E08C3721E092076CF0C2E0D0E0A8
:1019E000883522E092073CF0C5E0D0E08032934099
:1019F00014F0D0E0C0E0F12CE12C0E94A600883E5B
:101A0000934094F58FEFE81AF80A0E942801C53038
:101A1000D105A1F425E1E216F1047CF385EB92E017
:101A20000E94EF04709220010E94380481E08093AC
:101A30001F0186E00E942D0AC6E0D0E085E6E81688
:101A4000F104DCF20E94840360E080E00E9429043B
:101A500065E173E081E894E00E94E40561E0809133
:101A60001D010E942904C9CFC330D105A9F134F565
:101A7000C130D10571F183E393E0C230D10531F17A
:101A80002097B9F18C2F0E942D0AC0912001C0939C
:101A9000D5036091C2038091C3030E94B700C13097
:101AA00009F408C1C230F1F0C11123C060E0809197
:101AB000C4030E94B70086E793E003C1C430D10598
:101AC00071F085E593E0C530D105D1F60E94EF04B1
:101AD000D7CF86E293E0FACF8FE393E0F7CF89E4A4
:101AE00093E0F4CF61E08091C4030E94B7000E94AC
:101AF0006F028091D503811147C02FB7F894809170
:101B0000D7039091D803A091D903B091DA032FBFE6
:101B10004091D1035091D2036091D3037091D403CB
:101B2000841B950BA60BB70B853F9140A105B10512
:101B300058F12FB7F8948091D7039091D803A091D2
:101B4000D903B091DA032FBF8093D1039093D203CE
:101B5000A093D303B093D4030E949D02C090CD0301
:101B6000D090CE03E090CF03F090D003A701960170
:101B70000E94FE0E87FFA8C00E949D02A701960149
:101B80000E94910E0E94E6058091D503813009F0F4
:101B9000BCC02FB7F8948091D7039091D803A0913F
:101BA000D903B091DA032FBF4091D1035091D203F2
:101BB0006091D3037091D403841B950BA60BB70BD4
:101BC000853F9140A105B10508F49FC02FB7F89457
:101BD0008091D7039091D803A091D903B091DA03F3
:101BE0002FBF8093D1039093D203A093D303B093DC
:101BF000D403C090C503D090C603E090C703F09013
:101C0000C80369E873E084EE93E00E94E405609104
:101C1000C9037091CA038091CB039091CC0342E039
:101C20000E9402056FE371E084EE93E00E945A0483
:101C3000A70196015695479537952795C501B4019B
:101C40000E944011CA01B9010E94AB0F9B01AC0177
:101C50006091C9037091CA038091CB039091CC032A
:101C60000E94B51018160CF03FC0C090CD03D09064
:101C7000CE03E090CF03F090D0030E949D029B0121
:101C8000AC01C701B6010E94910E20E030E046E9A8
:101C900053E40E94BA1020E030E044EB53E40E9489
:101CA000030F0E94750F6115710579F1CB010E9438
:101CB00075022BC060E08091C4030E94B70083E6E8
:101CC00093E00E94EF0415CF0E949D02A7019601A8
:101CD0000E94B51018160CF057CF0E949D029B0170
:101CE000AC01C701B6014CCF0E949D02C090CD034C
:101CF000D090CE03E090CF03F090D003A7019601DF
:101D00000E94B51018160CF4B8CF0115110509F48E
:101D100049CE0E94C701882309F442CE0E940000E8
:101D20003FCE5058BB27AA270E94A90E0C946310DF
:101D30000E94551038F00E945C1020F039F49F3F4B
:101D400019F426F40C9452100EF4E095E7FB0C9471
:101D50002310E92F0E94741058F3BA176207730713
:101D60008407950720F079F4A6F50C94AE100EF4D4
:101D7000E0950B2EBA2FA02D0B01B90190010C019B
:101D8000CA01A0011124FF27591B99F0593F50F4B3
:101D9000503E68F11A16F040A22F232F342F44270B
:101DA000585FF3CF469537952795A795F040539503
:101DB000C9F77EF41F16BA0B620B730B840BBAF0D3
:101DC0009150A1F0FF0FBB1F661F771F881FC2F73E
:101DD0000EC0BA0F621F731F841F48F48795779552
:101DE0006795B795F7959E3F08F0B0CF9395880F0C
:101DF00008F09927EE0F9795879508950E94FF0F99
:101E000008F481E008950E94170F0C9463100E945B
:101E10005C1058F00E94551040F029F45F3F29F003
:101E20000C94231051110C94AF100C9452100E947A
:101E3000741068F39923B1F3552391F3951B550B57
:101E4000BB27AA2762177307840738F09F5F5F4F8D
:101E5000220F331F441FAA1FA9F335D00E2E3AF0CC
:101E6000E0E832D091505040E695001CCAF72BD0E4
:101E7000FE2F29D0660F771F881FBB1F2617370735
:101E80004807AB07B0E809F0BB0B802DBF01FF2767
:101E900093585F4F3AF09E3F510578F00C94231011
:101EA0000C94AF105F3FE4F3983ED4F3869577959A
:101EB0006795B795F7959F5FC9F7880F911D969520
:101EC000879597F90895E1E0660F771F881FBB1F7C
:101ED000621773078407BA0720F0621B730B840B29
:101EE000BA0BEE1F88F7E09508950E947C0F689466
:101EF000B1110C94AF1008950E947C1088F09F5788
:101F000098F0B92F9927B751B0F0E1F0660F771F1D
:101F1000881F991F1AF0BA95C9F714C0B13091F013
:101F20000E94AE10B1E008950C94AE10672F782F88
:101F30008827B85F39F0B93FCCF3869577956795D8
:101F4000B395D9F73EF490958095709561957F4F44
:101F50008F4F9F4F0895E89409C097FB3EF49095EA
:101F60008095709561957F4F8F4F9F4F9923A9F072
:101F7000F92F96E9BB279395F69587957795679501
:101F8000B795F111F8CFFAF4BB0F11F460FF1BC045
:101F90006F5F7F4F8F4F9F4F16C0882311F096E9D8
:101FA00011C0772321F09EE8872F762F05C0662386
:101FB00071F096E8862F70E060E02AF09A95660F3F
:101FC000771F881FDAF7880F9695879597F90895F8
:101FD0000E94961090F09F3748F4911116F00C94DF
:101FE000AF1060E070E080E89FEB089526F41B16C8
:101FF000611D711D811D0C9429100C944410990FC2
:102000000008550FAA0BE0E8FEEF16161706E807C2
:10201000F907C0F012161306E407F50798F0621BE3
:10202000730B840B950B39F40A2661F0232B242BB8
:10203000252B21F408950A2609F4A140A6958FEFD7
:10204000811D811D089597F99F6780E870E060E029
:102050000895882371F4772321F09850872B762FE9
:1020600007C0662311F499270DC09051862B70E0AC
:1020700060E02AF09A95660F771F881FDAF7880FBD
:102080009695879597F908959F3F31F0915020F4E8
:10209000879577956795B795880F911D9695879544
:1020A00097F908959FEF80EC089500240A9416167E
:1020B000170618060906089500240A941216130636
:1020C000140605060895092E0394000C11F48823C4
:1020D00052F0BB0F40F4BF2B11F460FF04C06F5FE0
:1020E0007F4F8F4F9F4F089557FD9058440F551FB6
:1020F00059F05F3F71F04795880F97FB991F61F08A
:102100009F3F79F087950895121613061406551F00
:10211000F2CF4695F1DF08C0161617061806991F6C
:10212000F1CF869571056105089408950E947C1091
:10213000A0F0BEE7B91788F4BB279F3860F41616E5
:10214000B11D672F782F8827985FF7CF86957795F1
:102150006795B11D93959639C8F30895E894BB2708
:1021600066277727CB0197F908950E94FF0F08F49F
:102170008FEF08950E94CD100C9463100E945510AB
:1021800038F00E945C1020F0952311F00C9423107D
:102190000C94521011240C94AF100E94741070F320
:1021A000959FC1F3950F50E0551F629FF001729FFC
:1021B000BB27F00DB11D639FAA27F00DB11DAA1F0B
:1021C000649F6627B00DA11D661F829F2227B00D58
:1021D000A11D621F739FB00DA11D621F839FA00DE3
:1021E000611D221F749F3327A00D611D231F849F33
:1021F000600D211D822F762F6A2F11249F5750408A
:102200009AF0F1F088234AF0EE0FFF1FBB1F661F04
:10221000771F881F91505040A9F79E3F510580F0CD
:102220000C9423100C94AF105F3FE4F3983ED4F36A
:10223000869577956795B795F795E7959F5FC1F771
:10224000FE2B880F911D9695879597F908950E940A
:10225000FF0F880B990B089597FB072E16F4009437
:1022600007D077FD09D00E94621107FC05D03EF42B
:10227000909581959F4F0895709561957F4F089532
:10228000A1E21A2EAA1BBB1BFD010DC0AA1FBB1F7A
:10229000EE1FFF1FA217B307E407F50720F0A21BEC
:1022A000B30BE40BF50B661F771F881F991F1A9459
:1022B00069F760957095809590959B01AC01BD0183
:1022C000CF010895AA1BBB1B51E107C0AA1FBB1F6A
:1022D000A617B70710F0A61BB70B881F991F5A95B2
:1022E000A9F780959095BC01CD010895EE0FFF1FD1
:1022F0000590F491E02D0994F894FFCF016A026AE9
:10230000026A026A026A026A026A026A026A026A6D
:10231000026A026A026A026A020700010200000001
:1023200000FD015D018A014A02BB019901AD010076
:1023300000000054045D016C026B020D0A006E6126
:102340006E00696E66006F7666000A20746865200C
:1023500043757272656E7420537065656420676999
:1023600076656E20746F2073746570706572206975
:10237000733A000A20746865206E756D626572207C
:10238000696620737465707320706572207365636D
:102390006F6E642069733A004357004343006375CE
:1023A00072736F72206E6F772061743A003E00691D
:1023B0006E20416E676C652073637265656E0020E8
:1023C0002020416E676C65204D6F646500416E672B
:1023D0006C653A2020002E00696E2073706565647C
:1023E0002073637265656E002020205370656564FC
:1023F000204D6F64650053706565643A20003E208F
:10240000535045454420202020414E474C45200054
:102410002020535045454420203E20414E474C4506
:102420002000446973706C61792055706461746533
:102430000073656C65637420427574746F6E2069F7
:1024400073207573656420210073656C6563742067
:10245000427574746F6E20697320757365642021F2
:10246000262063757272656E742073637265656E83
:10247000206973206D6F64652073656C6563746992
:102480006F6E0053776974636820746F2073706592
:1024900065642073637265656E0053776974636861
:1024A00020746F20416E676C652073637265656E82
:1024B0000053776974636820746F2073656C65637B
:1024C00074696F6E2073637265656E0020434F4EB2
:1024D00054524F4C205459504500696E2073656C1E
:1024E000656374696F6E2073637265656E2C7365C6
:1024F0006C6563746564436F6E74726F6C203D002D
:10250000536574757020636F6D706C657465640AD3
:1025100000202020537475636B20627574746F6E95
:102520002000427574746F6E20524947485400422F
:102530007574746F6E204C45465400427574746F08
:102540006E20555000427574746F6E20444F574E84
:1025500000427574746F6E2053454C4543540073AC
:102560007065656420436F6E74726F6C204D6F648C
:102570006500416E676C6520436F6E74726F6C20EE
:102580004D6F6465000A207468652043757272653A
:0E2590006E742053706565642069733A000014
:107E0000112484B714BE81FFF0D085E080938100F7
:107E100082E08093C00088E18093C10086E0809377
:107E2000C20080E18093C4008EE0C9D0259A86E02C
:107E300020E33CEF91E0309385002093840096BBD3
:107E4000B09BFECF1D9AA8958150A9F7CC24DD24C4
:107E500088248394B5E0AB2EA1E19A2EF3E0BF2EE7
:107E6000A2D0813461F49FD0082FAFD0023811F036
:107E7000013811F484E001C083E08DD089C08234E0
:107E800011F484E103C0853419F485E0A6D080C0E4
:107E9000853579F488D0E82EFF2485D0082F10E0AE
:107EA000102F00270E291F29000F111F8ED06801E7
:107EB0006FC0863521F484E090D080E0DECF843638
:107EC00009F040C070D06FD0082F6DD080E0C81688
:107ED00080E7D80618F4F601B7BEE895C0E0D1E017
:107EE00062D089930C17E1F7F0E0CF16F0E7DF06D8
:107EF00018F0F601B7BEE89568D007B600FCFDCFD4
:107F0000A601A0E0B1E02C9130E011968C91119780
:107F100090E0982F8827822B932B1296FA010C0160
:107F200087BEE89511244E5F5F4FF1E0A038BF0790
:107F300051F7F601A7BEE89507B600FCFDCF97BE46
:107F4000E89526C08437B1F42ED02DD0F82E2BD052
:107F50003CD0F601EF2C8F010F5F1F4F84911BD097
:107F6000EA94F801C1F70894C11CD11CFA94CF0C13
:107F7000D11C0EC0853739F428D08EE10CD085E9AC
:107F80000AD08FE07ACF813511F488E018D01DD067
:107F900080E101D065CF982F8091C00085FFFCCF94
:107FA0009093C60008958091C00087FFFCCF809118
:107FB000C00084FD01C0A8958091C6000895E0E648
:107FC000F0E098E1908380830895EDDF803219F02E
:107FD00088E0F5DFFFCF84E1DECF1F93182FE3DFCA
:107FE0001150E9F7F2DF1F91089580E0E8DFEE27F6
:047FF000FF270994CA
:027FFE00040479
:00000001FF
