:100000000C9462000C948A000C948A000C948A0070
:100010000C94570D0C948A000C948A000C94B00D2B
:100020000C948A000C948A000C948A000C948A0028
:100030000C948A000C94ED0D0C948A000C948A00A8
:100040000C94B50C0C948A000C94250D0C94FF0CA8
:100050000C948A000C948A000C948A000C948A00F8
:100060000C948A000C948A000000000024002700F1
:100070002A0000000000250028002B0000000000DE
:1000800023002600290004040404040404040202DA
:100090000202020203030303030301020408102007
:1000A0004080010204081020010204081020000012
:1000B0000008000201000003040700000000000027
:1000C0000000040E11241FBECFEFD8E0DEBFCDBF6D
:1000D00013E0A0E0B1E0E0EAFBE202C005900D927F
:1000E000AE38B107D9F724E0AEE8B3E001C01D9205
:1000F000A338B207E1F710E0C2E6D0E004C02197D0
:10010000FE010E94B915C136D107C9F70E944E0EF3
:100110000C94CE150C94000096B19093CC03ECE6B1
:10012000F0E09081892B8083E8E6F0E080818260B6
:100130008083089580E480937C0080917A008064BD
:1001400080937A0080917A0086FDFCCF80917800C0
:10015000909179000895833081F028F4813099F0EE
:100160008230A9F008958730A9F08830C9F0843032
:10017000B1F4809180008F7D03C0809180008F77E3
:1001800080938000089584B58F7784BD089584B5E9
:100190008F7DFBCF8091B0008F778093B000089562
:1001A0008091B0008F7DF9CFCF93DF93282F30E07F
:1001B000F901E255FF4F8491F901E656FF4FD491C2
:1001C000F901EA57FF4FC491CC23A1F081110E949D
:1001D000AB00EC2FF0E0EE0FFF1FE458FF4FA591AE
:1001E000B491EC91ED2381E090E009F480E0DF919F
:1001F000CF91089580E090E0FACF1F93CF93DF93E3
:10020000282F30E0F901E255FF4F8491F901E656BD
:10021000FF4FD491F901EA57FF4FC491CC23A9F0C5
:10022000162F81110E94AB00EC2FF0E0EE0FFF1FA4
:10023000EE58FF4FA591B4918FB7F894EC9111113E
:1002400008C0D095DE23DC938FBFDF91CF911F9143
:100250000895DE2BF8CFCF93DF9390E0FC01E656B4
:10026000FF4F24918A579F4FFC0184918823D1F03E
:1002700090E0880F991FFC01E859FF4FA591B491B8
:10028000FC01EE58FF4FC591D491623071F49FB7D5
:10029000F8943C91822F809583238C93E8812E2BB8
:1002A00028839FBFDF91CF9108958FB7F894EC9189
:1002B0002E2B2C938FBFF6CF3FB7F8948091C703B6
:1002C0009091C803A091C903B091CA0326B5A89B19
:1002D00005C02F3F19F00196A11DB11D3FBFBA2FD8
:1002E000A92F982F8827BC01CD01620F711D811D98
:1002F000911D42E0660F771F881F991F4A95D1F71D
:1003000008958F929F92AF92BF92CF92DF92EF9219
:10031000FF924B015C010E945C016B017C010E9419
:100320005C016C197D098E099F09683E7340810547
:100330009105A8F321E0821A9108A108B10888EE7E
:10034000C80E83E0D81EE11CF11C81149104A104A5
:10035000B10429F7FF90EF90DF90CF90BF90AF905E
:100360009F908F900895CF92DF92EF92FF92C0906E
:10037000A003D090A1038091840090918500F12C7E
:10038000E12C7601DD24CC24C80ED91EE11CF11C21
:100390008091980390919903A0919A03B0919B0347
:1003A000A7019601281B390B4A0B5B0BCA01B90147
:1003B0000E948F1320E030E84BE356E40E94ED14D6
:1003C000181644F58091980390919903A0919A038F
:1003D000B0919B03A7019601281B390B4A0B5B0BBD
:1003E000DA01C9018093080190930901A0930A01E1
:1003F000B0930B01C0929803D0929903E0929A03B4
:10040000F0929B0310929F0310929E0310929D0303
:1004100010929C03FF90EF90DF90CF900895089585
:10042000AF92BF92CF92DF92EF92FF920F931F9302
:10043000CF93DF936C017B018B01040F151FEB0140
:100440005E01AE18BF08C017D10759F06991D601F7
:10045000ED91FC910190F081E02DC6010995892B69
:1004600079F7C501DF91CF911F910F91FF90EF9028
:10047000DF90CF90BF90AF900895FC01538D448DD5
:10048000252F30E0842F90E0821B930B541710F03F
:10049000CF96089501970895FC01918D828D98174C
:1004A00061F0A28DAE0FBF2FB11D5D968C91928D24
:1004B0009F5F9F73928F90E008958FEF9FEF089555
:1004C000FC01918D828D981731F0828DE80FF11D1E
:1004D000858D90E008958FEF9FEF0895FC01918D39
:1004E000228D892F90E0805C9F4F821B91098F7332
:1004F000992708958EEC93E00E946E0221E0892BEB
:1005000009F420E0822F089580E090E0892B29F003
:100510000E947A0281110C9400000895FC01A48DC0
:10052000A80FB92FB11DA35ABF4F2C91848D90E015
:1005300001968F739927848FA689B7892C93A089F8
:10054000B1898C91837080648C93938D848D981382
:1005500006C00288F389E02D80818F7D8083089515
:10056000EF92FF920F931F93CF93DF93EC0181E003
:10057000888F9B8D8C8D98131AC0E889F9898081AA
:1005800085FF15C09FB7F894EE89FF896083E889DD
:10059000F98980818370806480839FBF81E090E0CF
:1005A000DF91CF911F910F91FF90EF900895F62E5C
:1005B0000B8D10E00F5F1F4F0F731127E02E8C8DF6
:1005C0008E110CC00FB607FCFACFE889F98980813B
:1005D00085FFF5CFCE010E948E02F1CFEB8DEC0F9F
:1005E000FD2FF11DE35AFF4FF0829FB7F8940B8F58
:1005F000EA89FB8980818062CFCFCF93DF93EC01C2
:10060000888D8823B9F0AA89BB89E889F9898C91FA
:1006100085FD03C0808186FD0DC00FB607FCF7CFB6
:100620008C9185FFF2CF808185FFEDCFCE010E94B6
:100630008E02E9CFDF91CF910895089590E080E098
:10064000089560E08091AA030C94FD00CF92DF92A0
:10065000EF92FF926B017C0120E03AE145EF56E416
:100660000E94ED1487FD34C081E08093A203A701AE
:100670009601C701B6010E9476129B01AC0160E0B1
:1006800074E284E79BE40E94E71220E030E040E857
:100690005FE30E9475120E9460136B017C018FEF73
:1006A000C816D104E104F10429F020F0C12CD12CAA
:1006B0007601CA94C092B3008091A2038093B100E6
:1006C00082E48093B000FF90EF90DF90CF90089588
:1006D00020E030E145E755E4C701B6010E94ED1482
:1006E00087FD0CC082E08093A20320E030E040E868
:1006F00051E4C701B6010E94F214BFCF20E030E000
:1007000045E754E4C701B6010E94ED1487FD08C017
:1007100083E08093A20320E030E040E852E4E9CF98
:1007200020E030E045EF53E4C701B6010E94ED142C
:1007300087FD08C084E08093A20320E030E040E021
:1007400053E4D7CF20E030E045E753E4C701B601DA
:100750000E94ED1487FD08C085E08093A20320E08D
:1007600030E040E853E4C5CF20E030E044EF52E40D
:10077000C701B6010E94ED1487FD08C086E0809392
:10078000A20320E030E040E054E4B3CF87E0809360
:10079000A20320E030E040E055E4ABCFE1EBF0E035
:1007A0008081887F8083089561E08091AA030E9400
:1007B000FD000C94CE03CF92DF92EF92FF92CF9385
:1007C000DF93EC016A017B010E94CE031092A60325
:1007D0001092A503CC0FDD1FD093A403C093A303F5
:1007E0008091700082608093700020E030E0A90169
:1007F000C701B6010E94E212882321F0C701B601A9
:100800000E9426038091A2038093B100DF91CF91D3
:10081000FF90EF90DF90CF900895CF92DF92EF920C
:10082000FF92CF93DF9380919E0390919F038D3D24
:10083000954050F080919E0390919F038C5D954070
:1008400090939F0380939E0380919C0390919D03BE
:100850008D3D954050F080919C0390919D038C5D5F
:10086000954090939D0380939C0360919E037091AB
:100870009F03C0919C03D0919D0390E080E00E9473
:100880008F132FE832EC45E75EE30E94F2146B0110
:100890007C01BE0190E080E00E948F132FE832ECD3
:1008A00045E75EE30E94F2149B01AC01C701B6016B
:1008B0000E94761220E030E040E05FE30E94F214F4
:1008C000DF91CF91FF90EF90DF90CF9008954F92FE
:1008D0005F926F927F928F929F92AF92BF92CF92D0
:1008E000DF92EF92FF92C0900801D0900901E09052
:1008F0000A01F0900B012091040130910501409113
:100900000601509107018090000190900101A09094
:100910000201B0900301AFE0B0E00E949A159695F5
:100920008795779567950E948F139B01AC0160E0D6
:1009300074E284E799E40E94E7122B013C01C701AD
:10094000B60196958795779567950E948F139B01C1
:10095000AC0160E074E284E799E40E94E7129B0135
:10096000AC01C301B2010E9476126B017C01AFE0C1
:10097000B0E0A50194010E949A1596958795779508
:1009800067950E948F139B01AC0160E074E284E7DD
:1009900099E40E94E71220E030E040E752E40E9430
:1009A000F2149B01AC01C701B6010E94761220E04F
:1009B00030E040EA51E40E94F214FF90EF90DF90A3
:1009C000CF90BF90AF909F908F907F906F905F90EF
:1009D0004F9008950F931F938091A0039091A103CE
:1009E0002091840030918500B0E0A0E0DC019927DF
:1009F0008827820F931FA11DB11D40919403509130
:100A0000950360919603709197038C019D01041BDF
:100A1000150B260B370BB901A801493051056105AB
:100A20007105A0F120919303243698F1109293035D
:100A300040919403509195036091960370919703B0
:100A40008C019D01041B150B260B370BB901A80166
:100A500040930001509301016093020170930301E0
:100A60008093940390939503A0939603B093970378
:100A70008FE00E94D400892B81F080919C0390919B
:100A80009D03019690939D0380939C031F910F916A
:100A900008952F5F20939303EBCF80919C03909157
:100AA0009D03892B31F48CED95E090939D03809309
:100AB0009C0380919C0390919D030197E3CF0F933A
:100AC0001F938091A0039091A10320918400309105
:100AD0008500B0E0A0E0DC0199278827820F931FF2
:100AE000A11DB11D40918F0350919003609191031E
:100AF000709192038C019D01041B150B260B370B83
:100B0000B901A801493051056105710508F444C0D7
:100B100020918E03243698F110928E0340918F031A
:100B20005091900360919103709192038C019D010B
:100B3000041B150B260B370BB901A80140930401C8
:100B400050930501609306017093070180938F0312
:100B500090939003A0939103B093920380E10E943D
:100B6000D400892B81F080919E0390919F03892B63
:100B7000B1F080919E0390919F03019709C02F5F70
:100B800020938E03EBCF80919E0390919F0301965B
:100B900090939F0380939E031F910F9108958CED76
:100BA00095E090939F0380939E03E3CFCF93DF93D1
:100BB000EC0160E08E810E94FD0061E08E810E9468
:100BC000FD0060E08E810E94FD008BE891E00197BE
:100BD000F1F7DF91CF910895CF92DF92EF92FF92DC
:100BE0000F931F93CF93DF936C017C0187E0E80E96
:100BF000F11CD0E0C0E0062F10E0B8010C2E02C0BE
:100C0000759567950A94E2F76170F70181917F010C
:100C10000E94FD002196C430D10579F7C601DF910D
:100C2000CF911F910F91FF90EF90DF90CF900C9498
:100C3000D605CF92DF92EF92FF920F931F93CF933F
:100C4000DF93EC01F62E642F8C810E94FD008D81D4
:100C50008F3F19F060E00E94FD000F2D10E08F859E
:100C600084FF25C06E0187E0C80ED11CF12CE12C59
:100C7000B8010E2C02C0759567950A94E2F7617071
:100C8000F60181916F010E94FD00FFEFEF1AFF0A4C
:100C900088E0E816F10461F7CE01DF91CF911F9152
:100CA0000F91FF90EF90DF90CF900C94D605B80194
:100CB00084E0759567958A95E1F7CE010E94EC0571
:100CC0006F2DCE01DF91CF911F910F91FF90EF908B
:100CD000DF90CF900C94EC0540E0682F8BE694E019
:100CE0000C94190681E00E946C068BE39FE101974A
:100CF000F1F70895CF93DF93823029F490917A042D
:100D0000986090937A0480937E0410927F0480E42C
:100D10008093800480E18093810480E58093820445
:100D200061E080916F040E942B01809170048F3FDD
:100D300019F061E00E942B0161E0809171040E9432
:100D40002B01CBE6D4E09E012B56344080917A04EF
:100D500084FD0BC084E090E021962817390744F405
:100D600061E08E810E942B01EECF88E090E0F4CF0D
:100D70008BE39DE00197F1F760E080916F040E94A2
:100D8000FD0060E0809171040E94FD00809170047C
:100D90008F3F19F060E00E94FD0080917A0484FD8D
:100DA00034C063E08BE694E00E94EC05CBE4D6E42B
:100DB000CE010197F1F763E08BE694E00E94EC0529
:100DC0002197F1F763E08BE694E00E94EC0583E560
:100DD00092E00197F1F762E08BE694E00E94EC0567
:100DE00080917A0480620E946C0684E080937B0488
:100DF0008CE00E946C060E94720682E080937C0464
:100E000086E0DF91CF910C946C0680620E946C06A4
:100E10008BE496E40197F1F780917A0480620E9456
:100E20006C0683E592E00197F1F780917A04806285
:100E30000E946C06D5CF90917E04691710F06FEF79
:100E4000690FE62FF0E0E559FB4F9489890F806820
:100E50000C946C06EBE6F4E080898D7F808B8860D3
:100E60000C946C0680911B01882359F010921B0191
:100E700080917B04982F926090937B048A600C94FD
:100E80006C0681E080931B010C942A0741E00E94CC
:100E9000190681E090E00895FB0101900020E9F738
:100EA0003197AF01461B570BDC01ED91FC9102809D
:100EB000F381E02D09948F929F92AF92BF92EF92AF
:100EC000FF920F931F93CF93DF93CDB7DEB7A19718
:100ED0000FB6F894DEBF0FBECDBF7C01FA01CB0187
:100EE00019A2223008F42AE08E010F5D1F4F822ED6
:100EF000912CB12CA12CBF01A50194010E94781561
:100F0000F901CA016A300CF5605DD8016E938D015C
:100F1000232B242B252B79F790E080E0109721F0EC
:100F2000BD01C7010E944C07A1960FB6F894DEBF21
:100F30000FBECDBFDF91CF911F910F91FF90EF902A
:100F4000BF90AF909F908F900895695CDECFCF9255
:100F5000DF92EF92FF920F931F93CF93DF936B017A
:100F6000770FEE08FF08F7FE1FC0EC01E881F9815A
:100F70000190F081E02D6DE209958C014427552701
:100F8000BA014C195D096E097F092AE0CE010E9461
:100F90005B07800F911FDF91CF911F910F91FF9001
:100FA000EF90DF90CF9008952AE0B701A601DF917E
:100FB000CF911F910F91FF90EF90DF90CF900C9405
:100FC0005B07CF93DF93BC018EEC93E00E944C074C
:100FD000EC016BE371E08EEC93E00E944C078C0F08
:100FE0009D1FDF91CF9108954F925F926F927F92F4
:100FF0008F929F92AF92BF92CF92DF92EF92FF9229
:101000000F931F93CF936B017C01742EAC019B0156
:101010000E945F156EE371E0811126C04601570101
:10102000E894B7F82FEF3FEF4FE75FE7C501B40152
:101030000E945F1581110CC02FEF3FEF4FE75FE774
:10104000C501B4010E94E21262E471E0181664F076
:101050002FEF3FEF4FE75FE4C701B6010E94ED14A9
:101060001816ACF466E471E08EEC93E0CF911F911A
:101070000F91FF90EF90DF90CF90BF90AF909F9037
:101080008F907F906F905F904F900C944C072FEF54
:101090003FEF4FE75FECC701B6010E94E21287FD08
:1010A000E1CF20E030E0A901C701B6010E94E212C1
:1010B00010E000E087FF0AC06DE28EEC93E00E9432
:1010C000B0028C01F7FAF094F7F8F094C0E060E019
:1010D00070E080E09FE37C1641F020E030E040E2E9
:1010E00051E40E94E712CF5FF6CFA70196010E945C
:1010F00076122B013C010E9460134B015C012AE037
:10110000BC01A4018EEC93E00E945B077C01E00E21
:10111000F11ECC23D1F1C501B4010E948F139B01B4
:10112000AC01C301B2010E9475124B015C016EE279
:101130008EEC93E00E94B002E80EF91EC15028F137
:1011400020E030E040E251E4C501B4010E94F21415
:101150002B013C010E9460134B01B12CA12C2AE011
:10116000B501A4018EEC93E00E945B07E80EF91E26
:10117000C501B4010E948F139B01AC01C301B201F0
:101180000E9475124B015C01D9CFC701CF911F910D
:101190000F91FF90EF90DF90CF90BF90AF909F9016
:1011A0008F907F906F905F904F900895CF93DF93D3
:1011B00042E00E94F407EC016BE371E08EEC93E0F7
:1011C0000E944C078C0F9D1FDF91CF9108950C94C6
:1011D0004C07CF93C82F61E08EE00E941B076AE4A2
:1011E00071E0C11102C06DE471E08BE694E00E94F1
:1011F000E70861E080911901CF910C941B07909151
:101200001C0127E030E0913011F426E030E081301D
:1012100009F452C08230F9F48091190190911A01B9
:10122000AC01415051094A30510509F43FC04C30DE
:101230005105E1F150931A01409319018091190170
:1012400090911A018217930734F48DE090E0909307
:101250001A018093190160E571E08EEC93E00E9421
:10126000E7086091190170911A018EEC93E00E94D9
:10127000A7076BE371E08EEC93E00E944C0761E0FE
:101280008DE00E941B078091190190911A010D9722
:1012900079F56FE571E08BE694E00E94E7080E9423
:1012A0002A0761E0809119010C941B070297909323
:1012B0001A0180931901C2CF8091190190911A01EE
:1012C000AC014D7F4930510589F0019690931A0188
:1012D000809319018091190190911A010E970CF4D5
:1012E000BACF30931A0120931901B5CF0296EECFF1
:1012F00066E871E08BE694E00E94E70880917B0449
:10130000982F926090937B048A600E946C06C9CFEC
:10131000CF92DF92EF92FF920F931F93CF93DF93C1
:10132000C82F81E691E00E94E107C630B1F40E9427
:10133000720660E080E00E941B0761E771E08BE6C7
:1013400094E00E94E70861E080E00E941B076FE7DD
:1013500071E08BE694E00E94E7088C2F0E94FF0862
:10136000C33009F4AAC0C43009F4EAC0C090AD0388
:10137000D090AE03E090AF03F090B00320E030E0F7
:1013800044EB53E4C701B6010E94ED14181684F42F
:1013900020E030E044EB53E4C701B6010E9475122F
:1013A0006093AD037093AE038093AF039093B0034B
:1013B000C090AD03D090AE03E090AF03F090B003C7
:1013C00020E030E0A901C701B6010E94E21287FFC8
:1013D00010C020E030E044EB53E4C701B6010E94A6
:1013E00076126093AD037093AE038093AF03909336
:1013F000B0036091AD037091AE038091AF03909103
:10140000B0030E945913EB0161E087E00E941B07C3
:10141000CE0168EE73E00E94641504E610E0B801A6
:101420000E9464158BE694E00E94A707CE01B801E4
:101430000E9464150AE010E0B8010E9464158BE672
:1014400094E00E94A707CE01B8010E946415BC0178
:101450008BE694E00E94A70768E871E08BE694E0D1
:101460000E94E708C090AD03D090AE03E090AF03B8
:10147000F090B003C701B6010E94CC139B01AC01F0
:10148000C701B6010E94751220E030E040E251E44D
:101490000E94F2140E9459138BE694E00E94A70761
:1014A00061E080911901DF91CF911F910F91FF9021
:1014B000EF90DF90CF900C941B07809119019091D1
:1014C0001A018930910591F1ECF48730910549F1C9
:1014D00020E030E040E251E4089709F047CF609106
:1014E000AD037091AE038091AF039091B0030E9461
:1014F00076126093AD037093AE038093AF03909325
:10150000B00334CF8B309105B1F00D9709F02ECF99
:101510008091AB0391E089278093AB030E94E90897
:1015200025CF20E030E048EC52E4D9CF20E030E095
:1015300040E85FE3D4CF2DEC3CEC4CEC5DE3CFCF47
:101540008091190190911A018930910519F1ACF43B
:1015500087309105D1F020E030E040E251E4089777
:1015600009F004CF6091AD037091AE038091AF0399
:101570009091B0030E947512BCCF8B30910529F673
:101580002DEC3CEC4CEC5DE3EDCF20E030E048ECA2
:1015900052E4E8CF20E030E040E85FE3E3CFCF92D1
:1015A000DF92EF92FF920F931F93CF93DF93C82F99
:1015B0008AE891E00E94E107C630B1F40E94720609
:1015C00060E080E00E941B076AE971E08BE694E02E
:1015D0000E94E70861E080E00E941B0768EA71E072
:1015E0008BE694E00E94E7088C2F0E94FF08C3302E
:1015F00009F4A9C0C43009F4F1C020E030E442E7A6
:1016000055E46091B1037091B2038091B30390915E
:10161000B4030E94ED14181664F480E090E4A2E78D
:10162000B5E48093B1039093B203A093B303B09356
:10163000B40320E030E0A9016091B1037091B203DE
:101640008091B3039091B4030E94E21287FF08C017
:101650001092B1031092B2031092B3031092B4032C
:101660006091B1037091B2038091B3039091B40380
:101670000E945913EB0161E086E00E941B0770E0B5
:1016800060E0C83E83E0D8072CF0CE0168EE73E03E
:101690000E9464158BE694E00E94A707CE0168EED5
:1016A00073E00E94641504E610E0B8010E9464151E
:1016B0008BE694E00E94A707CE01B8010E94641552
:1016C0000AE010E0B8010E9464158BE694E00E94E5
:1016D000A707CE01B8010E946415BC018BE694E017
:1016E0000E94A70768E871E08BE694E00E94E70893
:1016F000C090B103D090B203E090B303F090B40374
:10170000C701B6010E94CC139B01AC01C701B60111
:101710000E94751220E030E040E251E40E94F21491
:101720000E9459138BE694E00E94A70761E0809124
:101730001901DF91CF911F910F91FF90EF90DF90F2
:10174000CF900C941B078091190190911A01883059
:10175000910589F1ECF48630910541F120E030E00B
:1017600048EC52E4079709F048CF6091B1037091BB
:10177000B2038091B3039091B4030E9476126093F8
:10178000B1037093B2038093B3039093B40335CF46
:101790008B309105A9F08D309105B9F0099709F0CA
:1017A0002CCF20E030E040E85FE3DFCF20E030E006
:1017B0004AE754E4DACF20E030E040E251E4D5CF0C
:1017C0002DEC3CEC4CEC5DE3D0CF8091AB0391E091
:1017D00089278093AB030E94E9080FCF80911901FC
:1017E00090911A018830910549F1ACF48630910549
:1017F00001F120E030E048EC52E4079709F0FDCE1B
:101800006091B1037091B2038091B3039091B403DE
:101810000E947512B4CF8B309105A9F08D309105DF
:10182000A1F2099709F0E9CE20E030E040E85FE35B
:10183000E7CF20E030E04AE754E4E2CF20E030E0B8
:1018400040E251E4DDCF2DEC3CEC4CEC5DE3D8CF35
:10185000CF93C82F84ED91E00E94E107C53089F550
:1018600083EE91E00E94E10780911C01823060F4D8
:101870000E94320780911C01823009F474C080916B
:10188000AB03CF910C94E9088BEF91E00E94E10744
:1018900080910C01882359F085E392E00E94E107D2
:1018A00081E080931C0186E00E94CF0AE1CF109274
:1018B0001C018CE492E00E94E10786E00E94880906
:1018C000D7CF80911C01882331F0813041F48C2FD7
:1018D0000E94CF0ACFCF8C2F0E948809CBCF83E6FE
:1018E00092E00E94E107C63061F40E94720660E057
:1018F00080E00E941B076EE772E08BE694E00E9496
:10190000E708C150C23030F480910C0191E0892782
:1019100080930C0161E080E00E941B076CE872E09C
:101920008EEC93E00E94E70860910C0170E08EEC71
:1019300093E00E94A7076BE371E08EEC93E00E94B6
:101940004C0780910C0162EC71E0882311F060EB90
:1019500071E08BE694E00E94E70861E08091190154
:101960000E941B0787CFCF9108951F920F920FB649
:101970000F9211242F933F938F939F93AF93BF9315
:101980008091C3039091C403A091C503B091C60395
:101990003091C20323E0230F2D3758F50196A11D86
:1019A000B11D2093C2038093C3039093C403A093FB
:1019B000C503B093C6038091C7039091C803A0915B
:1019C000C903B091CA030196A11DB11D8093C7033D
:1019D0009093C803A093C903B093CA03BF91AF917A
:1019E0009F918F913F912F910F900FBE0F901F905D
:1019F000189526E8230F0296A11DB11DD2CF1F9284
:101A00000F920FB60F9211242F933F934F935F9332
:101A10006F937F938F939F93AF93BF93EF93FF93B6
:101A20008EEC93E00E948E02FF91EF91BF91AF91F7
:101A30009F918F917F916F915F914F913F912F91E6
:101A40000F900FBE0F901F9018951F920F920FB618
:101A50000F9211242F938F939F93EF93FF93E09115
:101A6000DE03F091DF038081E091E403F091E50370
:101A700082FD1BC090818091E7038F5F8F7320915F
:101A8000E803821741F0E091E703F0E0E253FC4FF6
:101A9000958F8093E703FF91EF919F918F912F9105
:101AA0000F900FBE0F901F9018958081F4CF1F925A
:101AB0000F920FB60F9211242F933F934F935F9382
:101AC0006F937F938F939F93AF93BF93CF93EF9336
:101AD000FF9386B1C091CC039091A803C923982F9E
:101AE0009095C9238093CC03C0FF05C0E0910D0100
:101AF000F0910E010995C1FF05C0E0911701F09129
:101B000018010995C2FF05C0E0911501F091160179
:101B10000995C3FF05C0E0911301F09114010995E7
:101B2000C4FF05C0E0910F01F09110010995C5FFB8
:101B300005C0E0911101F09112010995FF91EF911B
:101B4000CF91BF91AF919F918F917F916F915F9155
:101B50004F913F912F910F900FBE0F901F901895AE
:101B60001F920F920FB60F9211242F933F934F9312
:101B70005F936F937F938F939F93AF93BF93EF93F5
:101B8000FF938091A5039091A60301969093A603DD
:101B90008093A5032091A3033091A4038217930798
:101BA00058F0809170008D7F809370000E94CE036A
:101BB0001092A6031092A503FF91EF91BF91AF91F0
:101BC0009F918F917F916F915F914F913F912F9155
:101BD0000F900FBE0F901F9018951F920F920FB687
:101BE0000F9211248F939F938091A0039091A10352
:101BF00001969093A1038093A0039F918F910F90E2
:101C00000FBE0F901F901895EEECF3E01382128236
:101C100088EE93E0A0E0B0E084839583A683B78349
:101C200081E291E09183808385EC90E095878487C1
:101C300084EC90E09787868780EC90E0918B808B96
:101C400081EC90E0938B828B82EC90E0958B848B7F
:101C500086EC90E0978B868B118E128E138E148EED
:101C6000EBE6F4E01382128283E391E091838083B8
:101C700088E084838FEF858389E0868384E087838F
:101C800085E0808786E0818787E0828713861486D7
:101C900015861686178681E00C947A06789484B5AA
:101CA000826084BD84B5816084BD85B5826085BD58
:101CB00085B5816085BD80916E00816080936E00E6
:101CC00010928100809181008260809381008091D8
:101CD0008100816080938100809180008160809389
:101CE00080008091B10084608093B1008091B00049
:101CF00081608093B00080917A00846080937A0044
:101D000080917A00826080937A0080917A0081606D
:101D100080937A0080917A00806880937A00109294
:101D2000C100E091DE03F091DF0382E08083E09167
:101D3000DA03F091DB031082E091DC03F091DD0324
:101D400080E180831092E603E091E203F091E303E7
:101D500086E08083E091E003F091E103808180617F
:101D60008083E091E003F091E103808188608083CB
:101D7000E091E003F091E103808180688083E0914D
:101D8000E003F091E10380818F7D808382E00E94F7
:101D90007A060E94720686E00E94280C82EB92E08E
:101DA0000E94E10762E08FE00E942B0162E080E187
:101DB0000E942B0162E081E10E942B018FE595E0FA
:101DC0009093180180931701C091A80382E00E94AC
:101DD0008C008AEE94E0909316018093150184E0C4
:101DE0000E948C0083EB91E0909314018093130187
:101DF000CE60C093A80388E00E948C0010928000FF
:101E00001092810080918100826080938100109205
:101E100085001092840081E080936F0078948DE0BB
:101E20008093AA038CE08093AC0361E08DE00E9474
:101E30002B0161E08CE00E942B0161E08BE00E94AD
:101E40002B011092B0001092B1008091B00082601E
:101E50008093B0008091B00080648093B000809146
:101E6000B00080618093B0000E94D4030E942103DF
:101E700040E050E060E772E48CE291E00E94DB0316
:101E800068E873E180E090E00E9481010E940D0407
:101E900020E030E040E050E40E94ED1418168CF48D
:101EA0000E940D040E94D60840E050E068E473E40C
:101EB00081E090E00E94DB0362E370E080E090E06C
:101EC000E3CF0E94D40300E010E092E0B92E0E941C
:101ED0009A00C0E08C3F93400CF072C064E670E062
:101EE00080E090E00E9481010E949A00C1E0D0E071
:101EF00082339105C4F0C3E0D0E0883C91059CF0AA
:101F0000C4E0D0E08C3721E092076CF0C2E0D0E072
:101F1000883522E092073CF0C5E0D0E08032934063
:101F200014F0D0E0C0E0F12CE12C0E949A00883E31
:101F30009340B4F58FEFE81AF80A64E670E080E0A9
:101F400090E00E948101C530D105A1F425E1E2169F
:101F5000F1045CF383E692E00E94E107B0921C0179
:101F60000E942A0781E080931B0186E00E94280CD2
:101F7000C6E0D0E085E6E816F104BCF20E947206E5
:101F800060E080E00E941B0763EC72E08BE694E067
:101F90000E94E70861E0809119010E941B07C5CFEC
:101FA000C330D10509F46DC00CF05CC0C130D1055F
:101FB00009F464C081EE92E0C230D10509F45BC03F
:101FC000FC2ECC2309F465C08C2F0E94280CC091F4
:101FD0001C01C093C1036091AB038091AC030E94CC
:101FE000FD00C13009F486C1C23009F450C0C111EE
:101FF00050C00E94210384E293E00E94E10725E0A3
:10200000F21247C00E940D042B013C01C090AD03A9
:10201000D090AE03E090AF03F090B00320E030E04A
:10202000A901C701B6010E94E212811106C0C12CAC
:10203000D12C84EBE82E83E4F82EA7019601C3018E
:10204000B2010E94761220E030E044EB53E40E949B
:10205000EE136093BD037093BE038093BF03909310
:10206000C00317C0C430D10579F083E093E0C530D8
:10207000D10509F0A5CF0E94E107A2CF84ED92E03F
:10208000FACF8DEE92E0F7CF87EF92E0F4CF0E9487
:10209000D4038091C103811179C02FB7F894809146
:1020A000C3039091C403A091C503B091C6032FBF91
:1020B0004091B9035091BA036091BB037091BC0386
:1020C000841B950BA60BB70B0B97A105B10508F464
:1020D0005DC02FB7F8948091C3039091C403A09181
:1020E000C503B091C6032FBF8093B9039093BA0381
:1020F000A093BB03B093BC03C090BD03D090BE03BC
:10210000E090BF03F090C0030E940D049B01AC015E
:10211000C701B6010E94751220E030E0A9010E94BB
:10212000ED1418160CF0EDC00E940D049B01AC01DB
:10213000C701B6010E94751226E636E646E650E46F
:102140000E94ED1418160CF4ECC00E940D049B01C3
:10215000AC01C701B6010E94751220E030E0A90170
:102160000E94ED1418160CF08FC10E940D049B0103
:10217000AC01C701B6010E94751226E636E646EEAE
:102180005FE30E94ED1418160CF48EC18091C10318
:10219000813009F0A3C02FB7F8948091C3039091C8
:1021A000C403A091C503B091C6032FBF4091B903EA
:1021B0005091BA036091BB037091BC03841B950BD3
:1021C000A60BB70B853F9140A105B10508F486C069
:1021D0002FB7F8948091C3039091C403A091C503D5
:1021E000B091C6032FBF8093B9039093BA03A09315
:1021F000BB03B093BC0362E773E08EEC93E00E94F4
:10220000E7080E94670442E00E94F40760E873E078
:102210008EEC93E00E94E7086091B1037091B203E5
:102220008091B3039091B4030E94D6086BE371E0F0
:102230008EEC93E00E944C07C090B103D090B203A3
:10224000E090B303F090B4030E9467049B01AC01DB
:10225000C701B6010E9475129B01AC016091B503E4
:102260007091B6038091B7039091B8030E947612E3
:102270006093B5037093B6038093B7039093B8034C
:1022800020E030E0A901C701B6010E94E2128111ED
:1022900002C00E94CE03A7019601C701B6010E94A9
:1022A000761220E030E048E453E40E94F21420E08B
:1022B00030E040E752E40E94E7120E9460130E945F
:1022C0008F136B017C0120E030E0A9010E94E21233
:1022D000882321F0C701B6010E94260301151105CC
:1022E00009F4F5CD0E947A02882309F4F0CD0E940A
:1022F0000000EDCD0E94210381E193E00E94E107FF
:10230000C8CE0E940D049B01AC01C701B6010E941A
:10231000751226E636E646E650EC0E94E21287FF8A
:1023200014CF67E373E08EEC93E00E94E7080E940D
:102330000D040E94D6086AE473E08EEC93E00E94DC
:10234000E7086091BD037091BE038091BF03909137
:10235000C00342E00E94F4076AE573E08EEC93E06C
:102360000E94E708C090BD03D090BE03E090BF0379
:10237000F090C0030E940D049B01AC01C701B6019F
:102380000E94751220E030E040E05FE30E94F2140A
:1023900020E030E0A9010E94ED1418160CF054C0A2
:1023A0000E940D049B01AC01C701B6010E94751289
:1023B00020E030E040E05FE30E94F2140E94D60883
:1023C000C090BD03D090BE03E090BF03F090C00367
:1023D0000E940D049B01AC01C701B6010E94751259
:1023E00020E030E040E05FE30E94F21420E030E0C3
:1023F000A9010E94ED141816BCF50E940D049B0162
:10240000AC01C701B6010E94751220E030E040E047
:102410005FE30E94F21420E030E046E953E40E94BA
:10242000F21420E030E044EB53E40E94E7120E94F3
:102430005913CB01009709F4A9CE40E050E068E4BD
:1024400073E40E94DB03A2CE0E940D049B01AC0149
:10245000C701B6010E94751220E030E040E05FE362
:102460000E94F2149058AACF0E940D049B01AC0167
:10247000C701B6010E94751220E030E040E05FE342
:102480000E94F2149058C7CF0E940D049B01AC012A
:10249000C701B6010E94751226E636E646EE5FEBEE
:1024A0000E94E21287FF72CE0E940D049B01AC01D4
:1024B000C701B6010E94751220E030E0A9010E9418
:1024C000ED1418164CF40E940D049B01AC01C701D9
:1024D000B6010E9475129FCF0E940D049B01AC01B2
:1024E000C701B6010E947512CDCF5058BB27AA274D
:1024F0000E948D120C949B140E948D1438F00E943F
:10250000941420F039F49F3F19F426F40C948A14A3
:102510000EF4E095E7FB0C945B14E92F0E94AC14D9
:1025200058F3BA17620773078407950720F079F408
:10253000A6F50C94E6140EF4E0950B2EBA2FA02D00
:102540000B01B90190010C01CA01A0011124FF2760
:10255000591B99F0593F50F4503E68F11A16F0405B
:10256000A22F232F342F4427585FF3CF469537955A
:102570002795A795F0405395C9F77EF41F16BA0B1F
:10258000620B730B840BBAF09150A1F0FF0FBB1FCD
:10259000661F771F881FC2F70EC0BA0F621F731F16
:1025A000841F48F4879577956795B795F7959E3F73
:1025B00008F0B0CF9395880F08F09927EE0F979504
:1025C000879508950E94371408F481E008950E94C9
:1025D000FB120C949B140E94941458F00E948D14CA
:1025E00040F029F45F3F29F00C945B1451110C94D6
:1025F000E7140C948A140E94AC1468F39923B1F385
:10260000552391F3951B550BBB27AA276217730718
:10261000840738F09F5F5F4F220F331F441FAA1FAC
:10262000A9F335D00E2E3AF0E0E832D09150504068
:10263000E695001CCAF72BD0FE2F29D0660F771F16
:10264000881FBB1F261737074807AB07B0E809F0FC
:10265000BB0B802DBF01FF2793585F4F3AF09E3F81
:10266000510578F00C945B140C94E7145F3FE4F38D
:10267000983ED4F3869577956795B795F7959F5FC4
:10268000C9F7880F911D9695879597F90895E1E010
:10269000660F771F881FBB1F621773078407BA076F
:1026A00020F0621B730B840BBA0BEE1F88F7E095CA
:1026B00008950E9460136894B1110C94E714089572
:1026C0000E94B41488F09F5798F0B92F9927B751FA
:1026D000B0F0E1F0660F771F881F991F1AF0BA95C6
:1026E000C9F714C0B13091F00E94E614B1E008952A
:1026F0000C94E614672F782F8827B85F39F0B93F1C
:10270000CCF3869577956795B395D9F73EF4909578
:102710008095709561957F4F8F4F9F4F0895E894F6
:1027200009C097FB3EF490958095709561957F4F19
:102730008F4F9F4F9923A9F0F92F96E9BB279395C7
:10274000F695879577956795B795F111F8CFFAF4D7
:10275000BB0F11F460FF1BC06F5F7F4F8F4F9F4F08
:1027600016C0882311F096E911C0772321F09EE866
:10277000872F762F05C0662371F096E8862F70E0CC
:1027800060E02AF09A95660F771F881FDAF7880FA6
:102790009695879597F908950E94CE1490F09F37EB
:1027A00048F4911116F00C94E71460E070E080E8B2
:1027B0009FEB089526F41B16611D711D811D0C945D
:1027C00061140C947C140E948D1420F019F00E9466
:1027D000941450F40C948A140C94E714E92F0E947A
:1027E000AC1488F35523B1F3E7FB62177307840732
:1027F0009507A8F189F3E92FFF2788232AF031975D
:10280000660F771F881FDAF7952F5527442332F07C
:1028100091505040220F331F441FD2F7BB27E91BB2
:10282000F50B621B730B840BB109B1F222F4620F3A
:10283000731F841FB11D31972AF0660F771F881F01
:10284000BB1FEFCF9150504062F041F0882332F02F
:10285000660F771F881F91505040C1F793950C94D5
:102860007C148695779567959F5FD9F7F7CF990F79
:102870000008550FAA0BE0E8FEEF16161706E8074A
:10288000F907C0F012161306E407F50798F0621B6B
:10289000730B840B950B39F40A2661F0232B242B40
:1028A000252B21F408950A2609F4A140A6958FEF5F
:1028B000811D811D089597F99F6780E870E060E0B1
:1028C0000895882371F4772321F09850872B762F71
:1028D00007C0662311F499270DC09051862B70E034
:1028E00060E02AF09A95660F771F881FDAF7880F45
:1028F0009695879597F908959F3F31F0915020F470
:10290000879577956795B795880F911D96958795CB
:1029100097F908959FEF80EC089500240A94161605
:10292000170618060906089500240A9412161306BD
:10293000140605060895092E0394000C11F488234B
:1029400052F0BB0F40F4BF2B11F460FF04C06F5F67
:102950007F4F8F4F9F4F089557FD9058440F551F3D
:1029600059F05F3F71F04795880F97FB991F61F011
:102970009F3F79F087950895121613061406551F88
:10298000F2CF4695F1DF08C0161617061806991FF4
:10299000F1CF869571056105089408950E94B414DD
:1029A000A0F0BEE7B91788F4BB279F3860F416166D
:1029B000B11D672F782F8827985FF7CF8695779579
:1029C0006795B11D93959639C8F30895E894BB2790
:1029D00066277727CB0197F908950E94371408F4EA
:1029E0008FEF08950E9405150C949B140E948D147E
:1029F00038F00E94941420F0952311F00C945B148D
:102A00000C948A1411240C94E7140E94AC1470F3F3
:102A1000959FC1F3950F50E0551F629FF001729F83
:102A2000BB27F00DB11D639FAA27F00DB11DAA1F92
:102A3000649F6627B00DA11D661F829F2227B00DDF
:102A4000A11D621F739FB00DA11D621F839FA00D6A
:102A5000611D221F749F3327A00D611D231F849FBA
:102A6000600D211D822F762F6A2F11249F57504011
:102A70009AF0F1F088234AF0EE0FFF1FBB1F661F8C
:102A8000771F881F91505040A9F79E3F510580F055
:102A90000C945B140C94E7145F3FE4F3983ED4F37A
:102AA000869577956795B795F795E7959F5FC1F7F9
:102AB000FE2B880F911D9695879597F908950E9492
:102AC0003714880B990B089597FB072E16F4009482
:102AD00007D077FD09D00E94A51507FC05D03EF46C
:102AE000909581959F4F0895709561957F4F0895BA
:102AF000A1E21A2EAA1BBB1BFD010DC0AA1FBB1F02
:102B0000EE1FFF1FA217B307E407F50720F0A21B73
:102B1000B30BE40BF50B661F771F881F991F1A94E0
:102B200069F760957095809590959B01AC01BD010A
:102B3000CF0108950E94BF15A59F900DB49F900DE1
:102B4000A49F800D911D11240895AA1BBB1B51E168
:102B500007C0AA1FBB1FA617B70710F0A61BB70B0D
:102B6000881F991F5A95A9F780959095BC01CD01B2
:102B70000895EE0FFF1F0590F491E02D0994A29F98
:102B8000B001B39FC001A39F700D811D1124911D41
:102B9000B29F700D811D1124911D0895F894FFCFEF
:102BA00000286BEE00286BEEFFFFFFFF010F020F06
:102BB000020F020F020F020F0207000102000000C5
:102BC00000B00210023D02FD026E024C02600200E3
:102BD000000000460710021E031D030D0A006E616F
:102BE0006E00696E66006F766600435700434300CF
:102BF000637572736F72206E6F772061743A003E56
:102C000000696E20416E676C652073637265656E46
:102C100000202020416E676C65204D6F6465004187
:102C20006E676C653A2020002E00696E2073706517
:102C300065642073637265656E00202020537065A3
:102C40006564204D6F64650053706565643A2000CB
:102C50003E20535045454420202020414E474C45BE
:102C600020002020535045454420203E20414E471F
:102C70004C452000446973706C6179205570646123
:102C800074650073656C65637420427574746F6E4F
:102C9000206973207573656420210073656C65631A
:102CA0007420427574746F6E206973207573656447
:102CB0002021262063757272656E742073637265BD
:102CC000656E206973206D6F64652073656C656344
:102CD00074696F6E0053776974636820746F207332
:102CE000706565642073637265656E0053776974FF
:102CF000636820746F20416E676C65207363726532
:102D0000656E0053776974636820746F2073656C17
:102D1000656374696F6E2073637265656E0020432E
:102D20004F4E54524F4C205459504500696E2073F9
:102D3000656C656374696F6E2073637265656E2C74
:102D400073656C6563746564436F6E74726F6C2039
:102D50003D00536574757020636F6D706C657465AC
:102D6000640A00202020537475636B2062757474AC
:102D70006F6E2000427574746F6E2052494748543C
:102D800000427574746F6E204C4546540042757451
:102D9000746F6E20555000427574746F6E20444FEE
:102DA000574E00427574746F6E2053454C45435422
:102DB00000737065656420436F6E74726F6C204D94
:102DC0006F646500416E676C6520436F6E74726F4F
:102DD0006C204D6F64650063757272656E7420615E
:102DE0006E676C65206973203A0020204D6F766510
:102DF000416E676C652069733A00202053746570DA
:102E00007065722053657420416E676C652069732C
:102E10003A0041637475616C2073706565643A00B3
:0E2E200020205365742073706565643A0000CD
:00000001FF
